:100000000C9463000C948B000C948B000C948B006C
:100010000C948B000C948B000C948B000C948B0034
:100020000C948B000C948B000C948B000C948B0024
:100030000C948B000C948B000C948B000C948B0014
:100040000C94020D0C948B000C94D00C0C94AA0C04
:100050000C948B000C948B000C948B000C948B00F4
:100060000C944C0D0C948B00000000002300260023
:10007000290000000000240027002A0000000000E2
:10008000250028002B0004040404040404040202D4
:100090000202020203030303030301020408102007
:1000A0004080010204081020010204081020000012
:1000B0000008000201000003040700000000000027
:1000C00000006B0EBB1311241FBECFEFD8E0DEBFC4
:1000D000CDBF24E0A2EEB1E001C01D92A731B2076E
:1000E000E1F711E0A0E0B1E0E8E3FDE202C0059035
:1000F0000D92A23EB107D9F710E0C2E6D0E004C0ED
:100100002197FE010E949714C136D107C9F70E94BA
:100110003D0F0C948F160C9400000895089596E0FE
:10012000899FD0011124AE56BC4F90967C936E935C
:100130005F9791E091969C939197E091FF03F091E6
:1001400000049091FE03992339F0309751F081110A
:1001500008C08091AE030994309719F05C968C9199
:10016000FACF08950895AF92BF92CF92DF92EF92A7
:10017000FF920F931F93CF93DF936C017B018B0151
:10018000040F151FEB015E01AE18BF08C017D107A1
:1001900059F06991D601ED91FC910190F081E02D2B
:1001A000C6010995892B79F7C501DF91CF911F9180
:1001B0000F91FF90EF90DF90CF90BF90AF90089598
:1001C000FC01448155816081718187E094E00C9449
:1001D000B300FC01538D448D252F30E0842F90E037
:1001E000821B930B541710F0CF9608950197089532
:1001F000FC01918D828D981761F0A28DAE0FBF2FFB
:10020000B11D5D968C91928D9F5F9F73928F90E050
:1002100008958FEF9FEF0895FC01918D828D9817BF
:1002200031F0828DE80FF11D858D90E008958FEFFC
:100230009FEF0895FC01918D228D892F90E0805CC5
:100240009F4F821B91098F739927089583EE92E047
:100250000E941A0121E0892B09F420E0822F0895E1
:1002600080E090E0892B29F00E94260181110C94F6
:1002700000000895FC01A48DA80FB92FB11DA35A49
:10028000BF4F2C91848D90E001968F739927848FB6
:10029000A689B7892C93A089B1898C9183708064D9
:1002A0008C93938D848D981306C00288F389E02D7A
:1002B00080818F7D80830895EF92FF920F931F932B
:1002C000CF93DF93EC0181E0888F9B8D8C8D981309
:1002D0001AC0E889F989808185FF15C09FB7F89415
:1002E000EE89FF896083E889F98980818370806461
:1002F00080839FBF81E090E0DF91CF911F910F91AC
:10030000FF90EF900895F62E0B8D10E00F5F1F4FBA
:100310000F731127E02E8C8D8E110CC00FB607FCC9
:10032000FACFE889F989808185FFF5CFCE010E9457
:100330003A01F1CFEB8DEC0FFD2FF11DE35AFF4F8A
:10034000F0829FB7F8940B8FEA89FB8980818062E5
:10035000CFCFCF93DF93EC01888D8823B9F0AA89A2
:10036000BB89E889F9898C9185FD03C0808186FD70
:100370000DC00FB607FCF7CF8C9185FFF2CF8081BF
:1003800085FFEDCFCE010E943A01E9CFDF91CF91F9
:100390000895833081F028F4813099F08230A9F0FB
:1003A00008958730A9F08830C9F08430B1F4809185
:1003B00080008F7D03C0809180008F7780938000C4
:1003C000089584B58F7784BD089584B58F7DFBCF64
:1003D0008091B0008F778093B00008958091B00035
:1003E0008F7DF9CF1F93CF93DF93282F30E0F90152
:1003F000E255FF4F8491F901E656FF4FD491F90180
:10040000EA57FF4FC491CC23A9F0162F81110E9407
:10041000C901EC2FF0E0EE0FFF1FE458FF4FA5914C
:10042000B4918FB7F894EC91111108C0D095DE23E8
:10043000DC938FBFDF91CF911F910895DE2BF8CF12
:10044000CF93DF9390E0FC01E656FF4F24918A574B
:100450009F4FFC0184918823C9F090E0880F991F79
:10046000FC01EE58FF4FA591B491FC01E458FF4FF9
:10047000C591D49161110DC09FB7F8948C912095CE
:1004800082238C938881282328839FBFDF91CF917B
:100490000895623051F49FB7F8943C91822F809573
:1004A00083238C93E8812E2BEFCF8FB7F894EC91B8
:1004B0002E2B2C938FBFEACF806480937C00809199
:1004C0007A00806480937A0080917A0086FDFCCF68
:1004D000809178009091790008953FB7F8948091C9
:1004E000510290915202A0915302B091540226B54C
:1004F000A89B05C02F3F19F00196A11DB11D3FBF5C
:10050000BA2FA92F982F8827BC01CD01620F711D2A
:10051000811D911D42E0660F771F881F991F4A9524
:10052000D1F708958F929F92AF92BF92CF92DF92B0
:10053000EF92FF924B015C010E946D026B017C0106
:100540000E946D026C197D098E099F09683E7340F7
:1005500081059105A8F321E0821A9108A108B1084C
:1005600088EEC80E83E0D81EE11CF11C81149104B2
:10057000A104B10429F7FF90EF90DF90CF90BF90D6
:10058000AF909F908F9008952FB7F89460914D028F
:1005900070914E0280914F02909150022FBF0895AA
:1005A0000F931F93CF93DF93C82FD62F86E0C89F5A
:1005B000F0011124EE56FC4F11A2878D90A18130DD
:1005C0009105F1F058F082309105F1F1039709F4AB
:1005D00040C0DF91CF911F910F9108956623C9F319
:1005E00061E070E08C2F0E948F000E94C402609333
:1005F000EA037093EB038093EC039093ED03E9CF50
:100600000E94C4020091EA031091EB032091EC03D5
:100610003091ED03AB01BC01401B510B620B730B1E
:100620008091FC039091FD03B0E0A0E08417950752
:10063000A607B70748F462E070E08C2FDF91CF91F6
:100640001F910F910C948F0063E070E0D111C1CF26
:10065000F4CF70E060E0F1CF282F30E094E03595E2
:1006600027959A95E1F7922F990F990F291B220F41
:10067000820F08950F931F930E94C4028B019C0167
:10068000409148025091490260914A0270914B0298
:100690008091590290915A02A0915B02B0915C0244
:1006A000041B150B260B370B083E134021053105A3
:1006B000C0F00196A11DB11D8093590290935A027A
:1006C000A0935B02B0935C0248515C4F6F4F7F4F29
:1006D000409348025093490260934A0270934B0240
:1006E000CBCF4091550250915602609157027091C4
:1006F000580284179507A607B70780F1E0915D02BD
:10070000F0915E02309751F10995611571058105EF
:10071000910579F16093590270935A0280935B02BC
:1007200090935C02645D7E4F8F4F9F4F60935502A4
:1007300070935602809357029093580282E090E0A3
:1007400090934702809346020E94C402609348023D
:100750007093490280934A0290934B026091590230
:1007600070915A0280915B0290915C021F910F91EF
:1007700008958091590290915A02A0915B02B09124
:100780005C02845D9E4FAF4FBF4F809355029093A4
:100790005602A0935702B093580281E090E0209156
:1007A000460230914702232B11F490E080E09093B1
:1007B000470280934602D2CF089520912302260F4C
:1007C0003327331F21323105ECF42091B902FC01AB
:1007D00090E080E0243069F082E00895A091230247
:1007E0002191AC014D5F5D4FA40FB52FB11D2C932E
:1007F0000196861798F380912302680F6093230275
:1008000080E0089581E008951092B90281E080931C
:10081000B8021092930261E082E10E94F20161E06D
:1008200083E10E94F201E9EBF0E080818E7F80831A
:1008300080818D7F808388E48093B80085E48093F5
:10084000BC00089510929202109291021092C00280
:100850001092E2020E9404048DE890E090939002CE
:1008600080938F028EE890E090938E0280938D02A9
:100870000895CF93DF9391E0909302028823B9F01B
:10088000C091B800D091BA008091BC008A7B80935F
:10089000BC0060E082E10E94F20160E083E10E941E
:1008A000F2010E940404D093BA00C093B800DF9113
:1008B000CF9108958F929F92AF92BF92CF92DF9285
:1008C000EF92FF920F931F93CF93DF93D091E202A9
:1008D000D13208F0D7C0182FC091E1020E946D02FA
:1008E0006B017C018091B90281116BC082E0809321
:1008F000B9021093B8028FEF8093B7021092B6023C
:10090000D093B502A1ECB2E0E5E9F2E080E0D813C3
:1009100091C01092940280919402CC0FC82BC09386
:10092000940280919302813009F088C01092930262
:100930000E946D026B017C01809194028093BB0048
:100940008091BB029091BC02A091BD02B091BE0209
:10095000892B8A2B8B2BA1F00E946D020091BB0288
:100960001091BC022091BD023091BE026C197D092C
:100970008E099F09061717072807390708F442C090
:100980008091BC0083FDD8CF85EC8093BC000E9491
:100990006D026B017C018091B902823009F450C074
:1009A0008091B7028F3F09F46FC08091B702803207
:1009B00009F46CC08091B702803309F469C084E007
:1009C00026C08091BB029091BC02A091BD02B09163
:1009D000BE02892B8A2B8B2B09F484CF0E946D02D7
:1009E0008090BB029090BC02A090BD02B090BE026D
:1009F0006C197D098E099F0986169706A806B90607
:100A000008F070CF8091BA020E94390485E01092FC
:100A1000C0021092E2021092BF02DF91CF911F91AB
:100A20000F91FF90EF90DF90CF90BF90AF909F908D
:100A30008F9008959D9191938F5F69CF85EEA5CF9B
:100A40008091BB029091BC02A091BD02B091BE0208
:100A5000892B8A2B8B2B09F49ECF0E946D0200916B
:100A6000BB021091BC022091BD023091BE026C19F4
:100A70007D098E099F09061717072807390708F00F
:100A80008ACFC0CF81E0C3CF80E0C1CF82E0BFCFAB
:100A900083E0BDCF0895E091920280919102E81722
:100AA00030F4F0E0EE51FE4F808190E008958FEF3A
:100AB0009FEF089590919202809191022FEF3FEF66
:100AC000981748F4E92FF0E0EE51FE4F208130E016
:100AD0009F5F90939202C901089580919102909135
:100AE0009202891B990B0895CF92DF92EF92FF92A9
:100AF0000F931F93CF93DF937C01CB018A01209149
:100B0000BF02222389F0EB016B01C40ED51ECC1568
:100B1000DD0569F06991D701ED91FC910190F081BB
:100B2000E02DC7010995F3CF642F0E94DD03C801B2
:100B3000DF91CF911F910F91FF90EF90DF90CF90B9
:100B40000895CF93DF931F92CDB7DEB769832091CD
:100B5000BF022223F9F02091E202203258F021E076
:100B600030E0FC013383228390E080E00F90DF913E
:100B7000CF9108958091C002E82FF0E0EF53FD4F30
:100B8000998190838F5F8093C0028093E20281E01D
:100B900090E0ECCF61E0CE0101960E94DD03F7CF3B
:100BA000FC01248131E03093BF022093E1021092D6
:100BB000C0021092E2028385682B86E893E00E94CF
:100BC000A10581E00C945A0490E080E00895CF9351
:100BD000DF9370E0FB01E255FF4F8491FB01E65685
:100BE000FF4FD4916A577F4FFB01C491CC23A1F0F2
:100BF00081110E94C901EC2FF0E0EE0FFF1FE859B0
:100C0000FF4FA591B491EC91ED2381E090E009F4C0
:100C100080E0DF91CF91089580E090E0FACF862FB9
:100C2000642F0C94F201862F642F0C942002EF9213
:100C3000FF920F931F93CF93DF93EC018B017C0105
:100C400083E7E80EF11CD7018D919C91FE01E159DB
:100C5000FF4F208131E03093BF022093E1021092D8
:100C6000C0021092E202DC01ED91FC910190F08152
:100C7000E02D0995FE01E059FF4F8081823058F048
:100C8000F70180819181DC01ED91FC910190F0816F
:100C9000E02D612F099581E00E945A04CF58DF4F63
:100CA00008831983DF91CF911F910F91FF90EF90EF
:100CB000089521E030E002C0220F331F6A95E2F769
:100CC000FC01EF58FF4F60817181442341F0262BD6
:100CD000372B31832083608171810C941706209516
:100CE000309526233723F5CF0F931F93CF938C0195
:100CF000C62F0E94D0056C2F6460C8010E94D005E9
:100D00006C2F6B7FC8010E94D00583EC90E00197A7
:100D1000F1F7CF911F910F9108950F931F93CF93E8
:100D2000DF938C01D62FC42F607F642B0E94740642
:100D300080E1D89FB00111246C2BC801DF91CF91C5
:100D40001F910F910C947406CF93DF93CDB7DEB74C
:100D500028970FB6F894DEBF0FBECDBF98E0E9E14B
:100D6000F1E0DE01119601900D929A95E1F79091D4
:100D70000F04981710F48FEF890F90E0880F991FD8
:100D800021E030E02C0F3D1F820F931FFC0160819A
:100D9000606840E087E094E028960FB6F894DEBFE4
:100DA0000FBECDBFDF91CF910C948D0640E061E086
:100DB00087E094E00E948D068BE39FE10197F1F7B5
:100DC000089541E00E948D0681E090E008958F92A1
:100DD0009F92AF92BF92CF92DF92EF92FF920F93CA
:100DE0001F93CF938B01C42F0E946D026B017C0176
:100DF0008091B902811169C0C13208F0C0E281E07E
:100E00008093B9028093B8029FEF9093B70210923B
:100E1000B6029C0F9093B502809394026091940265
:100E2000000F111F602B6093940280919302813018
:100E300009F082C0109293020E946D026B017C0146
:100E4000809194028093BB008091BB029091BC0280
:100E5000A091BD02B091BE02892B8A2B8B2BA1F0F1
:100E60000E946D020091BB021091BC022091BD0254
:100E70003091BE026C197D098E099F09061717076C
:100E80002807390708F442C08091BC0083FDD8CF01
:100E900085EC8093BC000E946D026B017C01809107
:100EA000B902813009F44AC08091B6028C1710F45F
:100EB000C091B602A5E9B2E0E2EEF1E080E08C1765
:100EC00051F19D9191938F5FFACF8091BB029091E8
:100ED000BC02A091BD02B091BE02892B8A2B8B2B44
:100EE00009F486CF0E946D028090BB029090BC02F4
:100EF000A090BD02B090BE026C197D098E099F09B9
:100F000086169706A806B90608F072CF8091BA0235
:100F10000E943904C0E010929202C09391028C2F7B
:100F2000CF911F910F91FF90EF90DF90CF90BF90E6
:100F3000AF909F908F90089585EEABCF8091BB02CC
:100F40009091BC02A091BD02B091BE02892B8A2B68
:100F50008B2B09F4A4CF0E946D020091BB0210916B
:100F6000BC022091BD023091BE026C197D098E0930
:100F70009F09061717072807390708F090CFC6CF33
:100F80002F923F924F925F926F927F928F929F9299
:100F9000AF92BF92CF92DF92EF92FF920F931F9387
:100FA000CF93DF9381E08093BF0288E68093E102D4
:100FB0001092C0021092E20260E086E893E00E9484
:100FC000A10581E00E945A048111E5C047E050E08C
:100FD00068E670E086E893E00E94E70686E893E022
:100FE0000E945A058F770E942C03382E86E893E0E2
:100FF0000E945A050E942C03482E86E893E00E9426
:101000005A058F7B0E942C03582E86E893E00E949D
:101010005A0586E893E00E945A050E942C03282E68
:1010200086E893E00E945A058F770E942C03682E71
:1010300086E893E00E945A050E942C03CEE1C80F77
:10104000AC2FB0E020E833E341EE51E00E94F4130E
:101050004B015C01E2EBF7E09D01C4E6D0E000E962
:1010600011E0CF01825B97408217930784F12E54E1
:10107000384FC90164E670E00E9445147C01C90143
:1010800060E971E00E9445146C0101E211E0C1E0E9
:10109000D0E0712CF901E370FF27C615D7050CF0DD
:1010A0003FC0C230D10569F5309759F5E114F1041C
:1010B00019F4C114D10429F590E8890E9BE3991E17
:1010C00096E2A91EB11C21960F5F1F4FE6CFCF01FC
:1010D00083709927892B99F4CF01BE010E94451492
:1010E000892B31F4CF01B8010E944514892B39F4C2
:1010F00080E8880E81E5981E81E0A81EB11C31961B
:10110000B0CFD8018C91A82FB0E020E831E541E0C4
:1011100050E00E94F413860E971EA81EB91ED3CF6E
:10112000252D30E0A0E1BEE00E9436146B017C0169
:10113000242D30E0ACE3B0E00E943614C60ED71E7A
:10114000E81EF91EC30CD11CE11CF11C822D81503C
:10115000990BDC0120E831E541E050E00E947B146E
:101160006C0D7D1D8E1D9F1D680D791D8A1D9B1D9B
:10117000DF91CF911F910F91FF90EF90DF90CF9073
:10118000BF90AF909F908F907F906F905F904F90A7
:101190003F902F90089560E070E0CB01E9CFCF92AF
:1011A000DF92EF92FF920F931F93CF93DF9321E093
:1011B00030E0790102C0EE0CFF1C6A95E2F76C0189
:1011C00020E7C20ED11CD6014C9150E0FC01E15940
:1011D000FF4F608170E0EC01CD58DF4F888199812D
:1011E0000E94E70688819981DC01ED91FC910284DF
:1011F000F385E02D09958C01F6018081823060F045
:1012000088819981DC01ED91FC910284F385E02DC8
:10121000099520E0022B182B0E211F2181E090E080
:101220000E151F0511F090E080E0DF91CF911F9126
:101230000F91FF90EF90DF90CF9008956F927F9283
:101240008F929F92AF92BF92CF92DF92EF92FF92D6
:101250000F931F93CF93DF9381E08093FE030E944F
:10126000C4020091EE031091EF032091F00330913E
:10127000F103AB01BC01401B510B620B730B80915E
:10128000FA039091FB03B0E0A0E084179507A6074E
:10129000B70708F0FAC0712C812C912C540183946B
:1012A0008091F903781608F050C0E72CF12CE091FA
:1012B000F603F091F703EE0DFF1D40E0608182E937
:1012C00093E00E94590695018401072C04C0000F89
:1012D000111F221F331F0A94D2F768010095109541
:1012E000612C8091F803681608F5C62DD0E0E091D6
:1012F000F403F091F503EC0FFD1F608182E993E0A8
:101300000E94CF082496CC0FDD1FCE56DC4F892BD0
:1013100041F4888199818C299D29998388836394DC
:10132000E0CF8881998180239123F7CF8091F603C4
:101330009091F703E80EF91E41E0F701608182E920
:1013400093E00E9459067394ABCF22E9C22E23E0AA
:10135000D22EE6018FEF9FEF2F8D38A1232B21F4A2
:101360001C8E9E8F8D8F19A22696F3E0CE3CDF0750
:1013700099F710E096E0B92E8091F803181708F05D
:1013800052C000E0E12EF12CEE0CFF1CC701865686
:101390009C4F7C012091F903021708F042C0F7012D
:1013A00060817181002E02C0769567950A94E2F7FC
:1013B000129F90011124200F311DE2E9F3E080E03B
:1013C000458D568D2417350709F463C08F5F369617
:1013D0008A30B1F760FF23C0E2E9F3E090E080E0FB
:1013E000448D411117C0E091F203F091F303E20F35
:1013F000F31F4081B89EF001B99EF00D1124EE5606
:10140000FC4F448F368F258F10A2178E61E00E940B
:10141000D00205C0019636968A30910509F70F5F14
:10142000B9CF1F5FA9CF10E0F60181A18111182F5C
:10143000F6E0CF0ED11CCC15DD05B1F70E94C40239
:101440006093EE037093EF038093F0039093F103A6
:101450001123D9F08091B3038823B9F08091B103AF
:101460009091B203019789F48091AE03DF91CF91FF
:101470001F910F91FF90EF90DF90CF90BF90AF90B2
:101480009F908F907F906F9008951092FE0380E060
:10149000EDCF6170BCCFFB0101900020E9F73197DF
:1014A000AF01461B570BDC01ED91FC910280F381EB
:1014B000E02D09940F931F93CF93DF93EC01888164
:1014C0009981009759F02A813B812617370730F020
:1014D00081E0DF91CF911F910F9108958B016F5F94
:1014E0007F4F0E94C215009759F0998388831B8310
:1014F0000A832C813D81232B59F7FC011082E8CF10
:1015000080E0E7CFCF93DF93EC018881998100974A
:1015100011F00E943915198218821D821C821B82CB
:101520001A82DF91CF9108950F931F93CF93DF938A
:10153000EC010C811D810F5F1F4FB8010E945A0AF8
:10154000882391F0288139818C819D8160EE71E042
:10155000820F931F0E9488161D830C83CE01DF919A
:10156000CF911F910F910895CE010E94820AF6CF6C
:10157000EF92FF920F931F93CF93DF93EC01FB0148
:10158000E080F180E114F10411F10481158101156D
:101590001105A9F08C819D81080F191FB801CE019A
:1015A0000E945A0A882399F0288139818C819D8173
:1015B000B701820F931F0E9488161D830C83CE01F2
:1015C000DF91CF911F910F91FF90EF900895CE0181
:1015D0000E94820AF4CFEF92FF920F931F93CF9352
:1015E000DF93EC017B018A01BA010E945A0A811142
:1015F0000BC0CE010E94820ACE01DF91CF911F91D4
:101600000F91FF90EF9008951D830C83B70188819F
:1016100099810E948816F0CFEF92FF920F931F934B
:10162000CF93DF93CDB7DEB762970FB6F894DEBFE6
:101630000FBECDBF8C01CB01F80111821082138245
:101640001282158214824AE09E012F5F3F4F79017A
:10165000B9010E94BF13F70101900020E9F731970B
:10166000AF014E195F09B701C8010E94EB0A6296EB
:101670000FB6F894DEBF0FBECDBFDF91CF911F91A3
:101680000F91FF90EF900895CF93DF93EC01FB0152
:101690008617970749F0608171816115710541F0E6
:1016A000448155810E94EB0ACE01DF91CF910895CC
:1016B0000E94820AF9CFFC011182108213821282E9
:1016C00015821482FB0101900020E9F73197AF01E8
:1016D000461B570B0C94EB0AFC018081918100970B
:1016E00011F00C9439150895CF93DF93CDB7DEB781
:1016F000A4970FB6F894DEBF0FBECDBF1092840240
:10170000109283021092800210927F0210927C024B
:1017100010927B020E94D60680E00E94A40660918F
:10172000870270918802CE0101960E940C0B67E639
:1017300071E0CE0107960E945B0BBE016F5F7F4F89
:10174000CE0107960E94B80A0E94940A18A21F8E22
:101750001AA219A21CA21BA2BC01CE014F960E9484
:10176000440BCE0107960E946C0BCE0101960E949D
:101770006C0BCE014F960E94E00081E00E94A4060F
:101780006091810270918202CE0101960E940C0B41
:1017900065E771E0CE0107960E945B0BBE016F5FAB
:1017A0007F4FCE0107960E94B80A0E94940A1A8EB3
:1017B000198E1C8E1B8E1E8E1D8EBC01CE0149966D
:1017C0000E94440BCE0107960E946C0BCE0101963D
:1017D0000E946C0BCE0149960E94E00082E00E94BC
:1017E000A40660917D0270917E02CE0101960E9456
:1017F0000C0B63E871E0CE0107960E945B0BBE0103
:101800006F5F7F4FCE0107960E94B80A0E94940A2C
:101810001C8A1B8A1E8A1D8A188E1F8ABC01CE0153
:1018200043960E94440BCE0107960E946C0BCE019A
:1018300001960E946C0BCE0143960E94E00083E06B
:101840000E94A40670E060E0CE0101960E940C0B9D
:1018500062E971E0CE0107960E945B0BBE016F5FEB
:101860007F4FCE0107960E94B80A0E94940A1E86F6
:101870001D86188A1F861A8A198ABC01CE010D9608
:101880000E94440BCE0107960E946C0BCE0101967C
:101890000E946C0BCE010D960E94E000CE010D96C9
:1018A0000E946C0BCE0143960E946C0BCE014996B0
:1018B0000E946C0BCE014F960E946C0B89E892E05F
:1018C000909386028093850210928B0281E0809330
:1018D0008C02A4960FB6F894DEBF0FBECDBFDF9189
:1018E000CF91089585ED8093BC008091BB029091CB
:1018F000BC02A091BD02B091BE020796A11DB11D10
:1019000023E0B695A795979587952A95D1F72091CD
:10191000BC0024FD03C01092B90208954091BB029F
:101920005091BC026091BD027091BE02452B462BC6
:10193000472B69F30097A105B10541F025E32A95EE
:10194000F1F700000197A109B109E1CF8091BA0236
:101950000C9439041F920F920FB60F9211242F93FB
:101960003F934F935F936F937F938F939F93AF9327
:10197000BF93EF93FF9383EE92E00E943A01FF91B1
:10198000EF91BF91AF919F918F917F916F915F91F7
:101990004F913F912F910F900FBE0F901F90189570
:1019A0001F920F920FB60F9211242F938F939F9334
:1019B000EF93FF93E091F302F091F4028081E091C4
:1019C000F902F091FA0282FD1BC090818091FC0225
:1019D0008F5F8F732091FD02821741F0E091FC022E
:1019E000F0E0ED51FD4F958F8093FC02FF91EF9158
:1019F0009F918F912F910F900FBE0F901F90189570
:101A00008081F4CF1F920F920FB60F9211242F9363
:101A10003F938F939F93AF93BF9380914D0290918B
:101A20004E02A0914F02B091500230914C0223E03F
:101A3000230F2D3758F50196A11DB11D20934C029F
:101A400080934D0290934E02A0934F02B0935002A8
:101A50008091510290915202A0915302B091540290
:101A60000196A11DB11D8093510290935202A09343
:101A70005302B0935402BF91AF919F918F913F91C8
:101A80002F910F900FBE0F901F90189526E8230FEF
:101A90000296A11DB11DD2CF1F920F920FB60F92C9
:101AA00011242F933F934F935F936F937F938F9363
:101AB0009F93AF93BF93EF93FF938091B900887F7B
:101AC000803609F44AC0F0F5883209F4A7C018F549
:101AD000803109F49BC0B8F4882309F4F9C0883038
:101AE00009F494C0FF91EF91BF91AF919F918F91B5
:101AF0007F916F915F914F913F912F910F900FBE0A
:101B00000F901F901895883109F488C0803251F7E2
:101B10008093B70214C0803409F49DC040F4803330
:101B2000B9F38833F9F68093B70285ECB0C08035FD
:101B300009F485C0883509F496C0883499F60E9466
:101B4000720CD0CF883909F48CC038F5883729F069
:101B500050F4883611F0803729F683E08093B9027B
:101B60001092450257C0883809F47BC0803919F0BB
:101B7000803809F0B7CF80914502803208F071C0FB
:101B8000E091450281E08E0F809345028091BB0079
:101B9000F0E0EB5DFD4F80833DC0803B39F0E0F429
:101BA000803A09F479C0883A09F09CCF84E08093A8
:101BB000B9021092240210922302E0918F02F09158
:101BC000900209958091230281110FC081E08093DA
:101BD00023021092030209C0803C09F4A6CF883C7E
:101BE00009F4A3CF883B09F07DCFE091240281E086
:101BF0008E0F80932402F0E0ED5FFD4F8081809393
:101C0000BB00909124028091230229C0809194020C
:101C10008093BB0085EC8093BC0064CF9091B602AA
:101C20008091B502981758F5E091B60281E08E0FC9
:101C30008093B602F0E0EB56FD4F8081E9CFE09152
:101C4000B60281E08E0F8093B6028091BB00F0E077
:101C5000EB56FD4F80839091B6028091B5029817A4
:101C6000C8F285E8D8CFE091B60281E08E0F80936C
:101C7000B6028091BB00F0E0EB56FD4F808380916F
:101C8000B80281115CCF81E08093930284EA809353
:101C9000BC001092B90226CF85EC8093BC00109254
:101CA000B90280914502803230F4E0914502F0E0C3
:101CB000EB5DFD4F10826091450270E0E0918D0276
:101CC000F0918E0285E292E00995109245020ACFCA
:101CD0001092B70234CFCF92DF92EF92FF92109220
:101CE000E6021092E50288EEC82E83E0D82EE12CA1
:101CF000F12CC092E702D092E802E092E902F09261
:101D0000EA0281E391E09093E4028093E30285ECA0
:101D100090E09093F0028093EF0284EC90E0909337
:101D2000F2028093F10280EC90E09093F4028093B1
:101D3000F30281EC90E09093F6028093F50282EC3E
:101D400090E09093F8028093F70286EC90E09093F5
:101D5000FA028093F9021092FC021092FD02109296
:101D6000FE021092FF020E94220410928903109238
:101D70008803C0928A03D0928B03E0928C03F09286
:101D80008D0383E491E09093870380938603109200
:101D90000A041092090485E591E090930804809369
:101DA000070484E280930B0484E18093100484E0B0
:101DB00080931104109212041092940310929803CD
:101DC0001092970310929903EEEAF3E010821482C6
:101DD00013821582369683E0EA3EF807B9F783E06E
:101DE00091E09093F5038093F40380E091E0909369
:101DF000F7038093F60384E08093F80383E08093F5
:101E0000F90387E091E09093F3038093F2038AE073
:101E100090E09093FB038093FA0384EF91E090931A
:101E2000FD038093FC03109200041092FF031092B4
:101E3000EE031092EF031092F0031092F103109250
:101E4000FE0381E691E0909393038093920380E2F6
:101E50008093010481E08093020486E893E09093EC
:101E600006048093050462EA71E080E893E0FF9045
:101E7000EF90DF90CF900C945B0BCF93DF93CDB7B7
:101E8000DEB7A7970FB6F894DEBF0FBECDBF78942C
:101E900084B5826084BD84B5816084BD85B582606F
:101EA00085BD85B5816085BD80916E008160809320
:101EB0006E00109281008091810082608093810089
:101EC0008091810081608093810080918000816099
:101ED000809380008091B10084608093B1008091F4
:101EE000B00081608093B00080917A00846080931C
:101EF0007A0080917A00826080937A0080917A00E3
:101F0000816080937A0080917A00806880937A0063
:101F10001092C100E091F302F091F40282E080831C
:101F2000E091EF02F091F0021082E091F102F09165
:101F3000F2028FEC80831092FB02E091F702F091A5
:101F4000F80286E08083E091F502F091F60280814C
:101F500080618083E091F502F091F60280818860D3
:101F60008083E091F502F091F602808180688083A1
:101F7000E091F502F091F60280818F7D80830E94CE
:101F800022046FEF7FEF82E993E00E9417064091F1
:101F9000020450E06091010470E08091050490918A
:101FA00006040E94E7068091050490910604DC0176
:101FB000ED91FC910284F385E02D09959093040442
:101FC00080930304809102048230B8F0809105046C
:101FD00090910604DC01ED91FC910284F385E02DE3
:101FE000099520E0382F8091030490910404822BFE
:101FF000932B90930404809303040E942204109274
:102000000C0480911104823018F098E090930C0435
:1020100080930F0462E370E080E090E00E949202FF
:102020006091120487E094E00E94D00568EE73E0AE
:1020300080E090E00E94920260E387E094E00E94DA
:1020400074060BE416E4C8010197F1F760E387E03A
:1020500094E00E947406C8010197F1F760E387E0FD
:1020600094E00E94740683E592E00197F1F760E244
:1020700087E094E00E94740660910C04606240E086
:1020800087E094E00E948D0684E080930D0440E098
:102090006CE087E094E00E948D060E94D60682E004
:1020A00080930E0440E066E087E094E00E948D0695
:1020B00040E062E087E094E00E948D068BE39FE1C0
:1020C0000197F1F788E08093120460E087E094E0E4
:1020D0000E94D00580EC97E090935E0280935D02B1
:1020E0008091590290915A02A0915B02B0915C02DA
:1020F0008093550290935602A0935702B0935802D2
:102100000E943A0361E085E00E94200261E084E0E1
:102110000E94200261E083E00E94200261E082E0F0
:102120000E94200261E086E00E9420020E94740B5F
:102130000E943A034B015C0180915F029091600222
:10214000A0916102B091620288169906AA06BB06A8
:1021500009F4CCC07CE3C72ED12CE12CF12CC501B5
:10216000B401A70196010E94591460936302CA0149
:10217000B901A70196010E94591460936402C50138
:10218000B40120E13EE040E050E00E945914CA0151
:10219000B90128E130E040E050E00E94591460931A
:1021A0006502C501B40120E831E541E050E00E943C
:1021B000591469017A01CA01B9016C5F7F4F8F4FD1
:1021C0009F4F27E030E040E050E00E9459146F5FDD
:1021D00060936602412C512C320140E0E4E62E2E41
:1021E000312C00E911E0242F30E02E54384FF90152
:1021F000E370FF273097F9F4C901B1010E9445143B
:10220000892B31F4C901B8010E944514892B99F436
:102210008EE691E0A0E0B0E0480E591E6A1E7B1EDB
:10222000D301C201AA27BB27C816D906EA06FB06B6
:1022300038F04F5FD8CF8DE691E0A0E0B0E0ECCF72
:1022400040936902C90164E670E00E9445148C0164
:10225000C90160E971E00E944514309729F4011525
:102260001105F1F40097E1F04DE651E060E070E017
:10227000441A550A660A770AC418D508E608F7080A
:10228000A1E2B1E020E0213081F4309709F0C3C130
:102290000115110519F4009709F0BDC14DE106C003
:1022A0004EE651E060E070E0E3CF4C9150E070E02A
:1022B00060E031E0320FC416D506E606F70640F0BE
:1022C000C41AD50AE60AF70A1196232F3C30D9F62C
:1022D0002F5F20936802C394C092670280925F02CE
:1022E00090926002A0926102B09262022091650217
:1022F00030E050E040E019A28E010F5D1F4F6AE010
:10230000C62ED12CE12CF12CCA01B901A7019601EE
:102310000E945914605DF80162938F012115310507
:102320004105510589F7309729F0BF0183EE92E00E
:102330000E944B0A60EA71E083EE92E00E944B0A31
:102340008AE0382E94EF492E5524539420E0622ED3
:1023500020E0722E3BE7C32E32E0D32E4FE7A42EAF
:1023600042E0B42E53E8852E52E0952E80918C02E7
:10237000882309F4AAC10E941E09882369F0E0910C
:102380008502F0918602082E000C990BC09791836C
:10239000808381E080938B0280918B02882309F4F3
:1023A00049C010928C028091890290918A028130FA
:1023B000910509F032C16091870270918802CE01C7
:1023C00001960E940C0B63EA71E0CE0182960E9496
:1023D0005B0BBE016F5F7F4FCE0182960E94B80AF1
:1023E0000E94940ABC0180E893E00E94440BCE0155
:1023F00082960E946C0BCE0101960E946C0B90920B
:1024000086028092850210928B020E94D60680E09E
:102410000E94A40680E893E00E94E00081E00E9410
:10242000A4066EEC71E087E094E00E944B0A82E023
:102430000E94A40683E00E945C029C01249DC001CE
:10244000259D900D349D900D112497FF02C0815061
:102450009C4F092F05950595192F110F110BE09031
:102460008702F0908802E016F106ACF51092710236
:1024700080917002811111C080916F0281110DC095
:102480000E94C40260936B0270936C0280936D0291
:1024900090936E0281E08093700280917002882395
:1024A000D1F00E94C40220916B0230916C024091E5
:1024B0006D0250916E02621B730B840B950B693990
:1024C0007A438105910538F080916F02811103C034
:1024D00081E080936F02C7010196801791076CF429
:1024E0001092710280916F02882339F080916A0204
:1024F000811103C081E080936A020E151F050CF064
:102500002DC11092700210926F0210926A02809197
:102510007102811103C081E08093710260917002A9
:1025200085E00E94F20160916F0284E00E94F20156
:1025300060916A0283E00E94F2016091710282E080
:102540000E94F20182E00E945C028C0180917A027A
:1025500081112BC00E94C402209176023091770233
:102560004091780250917902621B730B840B950B9A
:102570006133754781059105B8F180918102909191
:1025800082020817190784F581E080937A020E947D
:10259000C4026093720270937302809374029093EA
:1025A000750280917A028823F9F00E94C40200919A
:1025B0007202109173022091740230917502601BB7
:1025C000710B820B930B61327E448105910560F0A3
:1025D00010927A020E94C40260937602709377028E
:1025E000809378029093790260917A0286E00E944B
:1025F000F2016AE070E080E090E00E9492026114D3
:10260000710409F4B3CE0E942601882309F4AECEEA
:102610000E940000ABCE4CE149CE8230910549F5D5
:102620006091810270918202CE0101960E940C0B92
:1026300061EB71E0CE0182960E945B0BBE016F5F81
:102640007F4FCE0182960E94B80A0E94940ABC0174
:1026500080E893E00E94440BCE0182960E946C0BAE
:10266000CE0101960E946C0BB0928602A092850268
:10267000CACE039709F0C7CE60917D0270917E02A9
:10268000CE0101960E940C0B6FEB71E0CE01829699
:102690000E945B0BBE016F5F7F4FCE0182960E944E
:1026A000B80A0E94940ABC0180E893E00E94440B9F
:1026B000CE0182960E946C0BCE0101960E946C0B9B
:1026C000D0928602C09285029ECE80918B02882392
:1026D000D9F0809183029091840290938802809334
:1026E000870280917F029091800290938202809372
:1026F000810280917B0290917C0290937E02809374
:102700007D020E94740B96CE0E941E09182F88230A
:1027100009F490CE41E0682F87E094E00E948D0696
:102720001A3221F481E080938B0284CE133249F374
:10273000E0918502F091860280819181389E90011E
:10274000399E300D1124812F110F990BC097820FE4
:10275000931F9183808310928B026CCEE016F1065A
:1027600009F0DCCE1092700210926F0210926A0291
:1027700010927102D3CE80E893E00C946C0BBB27CF
:102780004A3031F4992322F4BDE2909581959F4F10
:102790000C94CB13BB27FB015527AA27880F991F41
:1027A000AA1FA41710F0A41B83955051B9F7A05D80
:1027B000AA3308F0A95DA193009779F7B111B193FD
:1027C0001192CB010C94E413DC01FC01672F719191
:1027D0007723E1F7329704C07C916D937083629107
:1027E000AE17BF07C8F308950E943614A59F900D39
:1027F000B49F900DA49F800D911D112408952F92D8
:102800003F924F925F926F927F928F929F92AF9280
:10281000BF92CF92DF92EF92FF920F931F93CF93CD
:10282000DF93CDB7DEB7CA1BDB0B0FB6F894DEBF64
:102830000FBECDBF09942A88398848885F846E848A
:102840007D848C849B84AA84B984C884DF80EE80D4
:10285000FD800C811B81AA81B981CE0FD11D0FB6DD
:10286000F894DEBF0FBECDBFED010895A29FB00169
:10287000B39FC001A39F700D811D1124911DB29FB4
:10288000700D811D1124911D089597FB072E16F4DC
:10289000009407D077FD09D00E94831407FC05D06F
:1028A0003EF4909581959F4F0895709561957F4F67
:1028B0000895A1E21A2EAA1BBB1BFD010DC0AA1F81
:1028C000BB1FEE1FFF1FA217B307E407F50720F099
:1028D000A21BB30BE40BF50B661F771F881F991F14
:1028E0001A9469F760957095809590959B01AC015D
:1028F000BD01CF010895B7FF0C94F4130E94F413A7
:10290000821B930B0895AA1BBB1B51E107C0AA1F92
:10291000BB1FA617B70710F0A61BB70B881F991F80
:102920005A95A9F780959095BC01CD010895EE0FB9
:10293000FF1F0590F491E02D09940F931F93CF93FF
:10294000DF938230910510F482E090E0E09115046D
:10295000F091160430E020E0B0E0A0E0309799F468
:102960002115310509F44AC0281B390B24303105E3
:10297000D8F58A819B816115710589F1FB019383EB
:102980008283FE0111C04081518102811381481769
:102990005907E0F04817590799F4109761F012961B
:1029A0000C93129713961C933296CF01DF91CF911F
:1029B0001F910F9108950093150410931604F4CFFE
:1029C0002115310551F04217530738F0A901DB01F9
:1029D0009A01BD01DF01F801C1CFEF01F9CF90935A
:1029E000160480931504CDCFFE01E20FF31F8193EF
:1029F00091932250310939832883D7CF2091130432
:102A000030911404232B41F42091150130911601CB
:102A10003093140420931304209113013091140176
:102A20002115310541F42DB73EB740911701509162
:102A30001801241B350BE0911304F0911404E217E4
:102A4000F307A0F42E1B3F0B2817390778F0AC01D1
:102A50004E5F5F4F2417350748F04E0F5F1F5093AE
:102A6000140440931304819391939FCFF0E0E0E02E
:102A70009CCFCF93DF930097E9F0FC01329713824C
:102A80001282A0911504B0911604ED0130E020E00F
:102A90001097A1F420813181820F931F209113049C
:102AA000309114042817390709F061C0F093140419
:102AB000E0931304DF91CF910895EA01CE17DF0769
:102AC000E8F54A815B819E0141155105B1F7E901A5
:102AD000FB83EA8349915991C40FD51FEC17FD0779
:102AE00061F4808191810296840F951FE901998399
:102AF0008883828193819B838A83F0E0E0E0129651
:102B00008D919C9113970097B9F52D913C91119758
:102B1000CD010296820F931F20911304309114046B
:102B20002817390739F6309751F51092160410928C
:102B30001504B0931404A0931304BCCFD383C283B1
:102B400040815181840F951FC817D90761F44E5FEA
:102B50005F4F88819981480F591F518340838A8133
:102B60009B81938382832115310509F0B0CFF093C7
:102B70001604E09315049ECFFD01DC01C0CF138243
:102B80001282D7CFB0E0A0E0E8ECF5E10C9401149C
:102B90008C01009751F4CB010E949D148C01C80157
:102BA000CDB7DEB7E0E10C941D14FC01E60FF71F72
:102BB0009C0122503109E217F30708F49DC0D901A6
:102BC000CD91DC911197C617D70798F0C530D10584
:102BD00030F3CE0104978617970708F3C61BD70B6F
:102BE0002297C193D1936D937C93CF010E943915A5
:102BF000D6CF5B01AC1ABD0A4C018C0E9D1EA09174
:102C00001504B0911604512C412CF12CE12C109795
:102C100031F580911304909114048815990509F0F9
:102C20005CC04616570608F058C080911301909179
:102C30001401009741F48DB79EB740911701509150
:102C40001801841B950BE817F90708F055C0F0939D
:102C50001404E0931304F90171836083A0CF8D9174
:102C60009C91119712966C90129713967C901397E3
:102C7000A815B90559F56C0142E0C40ED11CCA145F
:102C8000DB0420F1AC014A195B09DA0112961597B1
:102C900080F06282738251834083D9016D937C936B
:102CA000E114F10471F0D7011396FC93EE9312979F
:102CB00076CF22968C0F9D1FF90191838083F301BB
:102CC000EFCFF0931604E093150469CF4816590628
:102CD00008F42C017D01D3019ACFCB010E949D14F1
:102CE0007C01009749F0AE01B8010E947F16C8012F
:102CF0000E943915870153CF10E000E050CFFB014F
:102D0000DC0102C001900D9241505040D8F7089567
:102D1000FB01DC0101900D920020E1F7089510E025
:102D2000C2E6D0E004C0FE010E9497142196C3368B
:082D3000D107C9F7F894FFCFA9
:102D38000201000304050631323334353637383999
:102D48002A302300001704800000004000140054BB
:102D5800001F1C1F1E1F1E1F1F1E1F1E1F000000FE
:102D6800005C01B300E900A9011A01F8000C010098
:102D7800000000A1057405E4054A056D055A054BD8
:102D88000500000000E106B300E405DC03000000D4
:102D980000B2005906CF08312D20536574207465A0
:102DA8006D70202800322D205365742068756D6978
:102DB800202800332D20536574206C6967687420BF
:102DC8002800342D205365742074696D652028000F
:102DD8000D0A00456E7465722074656D703A20287E
:102DE80000456E7465722068756D693A2028004543
:102DF8006E746572206C696768743A202800282A06
:102E08002053617665292028232043616E63656C11
:022E180029008F
:00000001FF
