:100000000C9463000C948B000C948B000C948B006C
:100010000C948B000C948B000C948B000C948B0034
:100020000C948B000C948B000C948B000C948B0024
:100030000C948B000C948B000C948B000C948B0014
:100040000C94F20A0C948B000C94C00A0C949A0A3B
:100050000C948B000C948B000C948B000C948B00F4
:100060000C943C0B0C948B00000000002300260035
:10007000290000000000240027002A0000000000E2
:10008000250028002B0004040404040404040202D4
:100090000202020203030303030301020408102007
:1000A0004080010204081020010204081020000012
:1000B0000008000201000003040700000000000027
:1000C00000005B0CF71011241FBECFEFD8E0DEBF9D
:1000D000CDBF23E0A8ECB1E001C01D92A23EB20763
:1000E000E1F711E0A0E0B1E0ECE1F7E202C0059039
:1000F0000D92A83CB107D9F710E0C2E6D0E004C0E9
:100100002197FE010E948911C136D107C9F70E94CB
:10011000210D0C9481130C94000096E0899FD0016E
:100120001124A35ABC4F90967C936E935F9791E0F5
:1001300091969C939197E091CA03F091CB03909193
:10014000C903992339F0309751F0811108C080918B
:1001500079030994309719F05C968C91FACF089541
:10016000089508950895AF92BF92CF92DF92EF92D3
:10017000FF920F931F93CF93DF936C017B018B0151
:10018000040F151FEB015E01AE18BF08C017D107A1
:1001900059F06991D601ED91FC910190F081E02D2B
:1001A000C6010995892B79F7C501DF91CF911F9180
:1001B0000F91FF90EF90DF90CF90BF90AF90089598
:1001C000FC01448155816081718182ED93E00C9442
:1001D000B300FC01538D448D252F30E0842F90E037
:1001E000821B930B541710F0CF9608950197089532
:1001F000FC01918D828D981761F0A28DAE0FBF2FFB
:10020000B11D5D968C91928D9F5F9F73928F90E050
:1002100008958FEF9FEF0895FC01918D828D9817BF
:1002200031F0828DE80FF11D858D90E008958FEFFC
:100230009FEF0895FC01918D228D892F90E0805CC5
:100240009F4F821B91098F73992708958EEA92E040
:100250000E941A0121E0892B09F420E0822F0895E1
:1002600080E090E0892B29F00E94260181110C94F6
:1002700000000895FC01A48DA80FB92FB11DA35A49
:10028000BF4F2C91848D90E001968F739927848FB6
:10029000A689B7892C93A089B1898C9183708064D9
:1002A0008C93938D848D981306C00288F389E02D7A
:1002B00080818F7D80830895EF92FF920F931F932B
:1002C000CF93DF93EC0181E0888F9B8D8C8D981309
:1002D0001AC0E889F989808185FF15C09FB7F89415
:1002E000EE89FF896083E889F98980818370806461
:1002F00080839FBF81E090E0DF91CF911F910F91AC
:10030000FF90EF900895F62E0B8D10E00F5F1F4FBA
:100310000F731127E02E8C8D8E110CC00FB607FCC9
:10032000FACFE889F989808185FFF5CFCE010E9457
:100330003A01F1CFEB8DEC0FFD2FF11DE35AFF4F8A
:10034000F0829FB7F8940B8FEA89FB8980818062E5
:10035000CFCFCF93DF93EC01888D8823B9F0AA89A2
:10036000BB89E889F9898C9185FD03C0808186FD70
:100370000DC00FB607FCF7CF8C9185FFF2CF8081BF
:1003800085FFEDCFCE010E943A01E9CFDF91CF91F9
:100390000895833081F028F4813099F08230A9F0FB
:1003A00008958730A9F08830C9F08430B1F4809185
:1003B00080008F7D03C0809180008F7780938000C4
:1003C000089584B58F7784BD089584B58F7DFBCF64
:1003D0008091B0008F778093B00008958091B00035
:1003E0008F7DF9CF1F93CF93DF93282F30E0F90152
:1003F000E255FF4F8491F901E656FF4FD491F90180
:10040000EA57FF4FC491CC23A9F0162F81110E9407
:10041000C901EC2FF0E0EE0FFF1FE458FF4FA5914C
:10042000B4918FB7F894EC91111108C0D095DE23E8
:10043000DC938FBFDF91CF911F910895DE2BF8CF12
:10044000CF93DF9390E0FC01E656FF4F24918A574B
:100450009F4FFC0184918823C9F090E0880F991F79
:10046000FC01EE58FF4FA591B491FC01E458FF4FF9
:10047000C591D49161110DC09FB7F8948C912095CE
:1004800082238C938881282328839FBFDF91CF917B
:100490000895623051F49FB7F8943C91822F809573
:1004A00083238C93E8812E2BEFCF8FB7F894EC91B8
:1004B0002E2B2C938FBFEACF806480937C00809199
:1004C0007A00806480937A0080917A0086FDFCCF68
:1004D000809178009091790008953FB7F8948091C9
:1004E000110290911202A0911302B091140226B54C
:1004F000A89B05C02F3F19F00196A11DB11D3FBF5C
:10050000BA2FA92F982F8827BC01CD01620F711D2A
:10051000811D911D42E0660F771F881F991F4A9524
:10052000D1F708958F929F92AF92BF92CF92DF92B0
:10053000EF92FF924B015C010E946D026B017C0106
:100540000E946D026C197D098E099F09683E7340F7
:1005500081059105A8F321E0821A9108A108B1084C
:1005600088EEC80E83E0D81EE11CF11C81149104B2
:10057000A104B10429F7FF90EF90DF90CF90BF90D6
:10058000AF909F908F9008952FB7F89460910D02CF
:1005900070910E0280910F02909110022FBF08956A
:1005A0000F931F93CF93DF93C82FD62F86E0C89F5A
:1005B000F0011124E35AFC4F11A2878D90A18130E4
:1005C0009105F1F058F082309105F1F1039709F4AB
:1005D00040C0DF91CF911F910F9108956623C9F319
:1005E00061E070E08C2F0E948D000E94C402609335
:1005F000B5037093B6038093B7039093B803E9CF24
:100600000E94C4020091B5031091B6032091B70374
:100610003091B803AB01BC01401B510B620B730B53
:100620008091C7039091C803B0E0A0E084179507BC
:10063000A607B70748F462E070E08C2FDF91CF91F6
:100640001F910F910C948D0063E070E0D111C1CF28
:10065000F4CF70E060E0F1CF08952091E901260F1A
:100660003327331F21323105ECF42091A802FC011D
:1006700090E080E0243069F082E00895A091E901E3
:100680002191AC0147535E4FA40FB52FB11D2C93A0
:100690000196861798F38091E901680F6093E9014C
:1006A00080E0089581E008951092A80281E080938F
:1006B00087021092820261E082E10E94F20161E011
:1006C00083E10E94F201E9EBF0E080818E7F80837C
:1006D00080818D7F808388E48093B80085E4809357
:1006E000BC000895CF93DF9391E09093C8018823D5
:1006F000B9F0C091B800D091BA008091BC008A7B5B
:100700008093BC0060E082E10E94F20160E083E13E
:100710000E94F2010E945403D093BA00C093B80023
:10072000DF91CF910895CF92DF92EF92FF920F93D6
:100730001F93CF93DF93D82FC62F613208F098C054
:100740000E946D026B017C018091A80281116BC037
:1007500081E08093A802809387029FEF90938602A6
:10076000109285029C0F9093840280938302809163
:100770008302DD0FD82BD0938302809182028130D7
:1007800009F078C0109282020E946D026B017C0118
:10079000809183028093BB008091AA029091AB026A
:1007A000A091AC02B091AD02892B8A2B8B2BA1F0CA
:1007B0000E946D020091AA021091AB022091AC023E
:1007C0003091AD026C197D098E099F090617170734
:1007D0002807390708F448C08091BC0083FDD8CFB2
:1007E00085EC8093BC000E946D026B017C018091BE
:1007F000A802813009F440C0809185028C1710F462
:10080000C0918502E2E6F2E0A8E8B2E080E08C1355
:1008100055C08C2FDF91CF911F910F91FF90EF90DA
:10082000DF90CF9008958091AA029091AB02A091A1
:10083000AC02B091AD02892B8A2B8B2B09F484CFAB
:100840000E946D020091AA021091AB022091AC02AD
:100850003091AD026C197D098E099F0906171707A3
:100860002807390708F070CF8091A9020E9472030F
:10087000C0E0CFCF85EEB5CF8091AA029091AB02B8
:10088000A091AC02B091AD02892B8A2B8B2B09F47D
:10089000AECF0E946D020091AA021091AB0220918E
:1008A000AC023091AD026C197D098E099F090617C3
:1008B00017072807390708F09ACFD6CF91919D9353
:1008C0008F5FA5CF8F929F92AF92BF92CF92DF9210
:1008D000EF92FF920F931F93CF93DF93D09161021A
:1008E000D13208F0D7C0182FC09160020E946D026B
:1008F0006B017C018091A80281116BC082E0809322
:10090000A802109387028FEF8093860210928502CF
:10091000D0938402A0E4B2E0E2E6F2E080E0D813F3
:1009200091C01092830280918302CC0FC82BC09398
:10093000830280918202813009F088C01092820285
:100940000E946D026B017C01809183028093BB0049
:100950008091AA029091AB02A091AC02B091AD023D
:10096000892B8A2B8B2BA1F00E946D020091AA0289
:100970001091AB022091AC023091AD026C197D094F
:100980008E099F09061717072807390708F442C080
:100990008091BC0083FDD8CF85EC8093BC000E9481
:1009A0006D026B017C018091A802823009F450C075
:1009B000809186028F3F09F46FC080918602803259
:1009C00009F46CC080918602803309F469C084E028
:1009D00026C08091AA029091AB02A091AC02B09186
:1009E000AD02892B8A2B8B2B09F484CF0E946D02D8
:1009F0008090AA029090AB02A090AC02B090AD02A1
:100A00006C197D098E099F0986169706A806B906F6
:100A100008F070CF8091A9020E94720385E01092C5
:100A20003F021092610210923E02DF91CF911F911E
:100A30000F91FF90EF90DF90CF90BF90AF909F907D
:100A40008F9008959D9191938F5F69CF85EEA5CF8B
:100A50008091AA029091AB02A091AC02B091AD023C
:100A6000892B8A2B8B2B09F49ECF0E946D0200915B
:100A7000AA021091AB022091AC023091AD026C1928
:100A80007D098E099F09061717072807390708F0FF
:100A90008ACFC0CF81E0C3CF80E0C1CF82E0BFCF9B
:100AA00083E0BDCF0895E0911A0280911902E81702
:100AB00030F4F0E0E857FD4F808190E008958FEF2B
:100AC0009FEF089590911A02809119022FEF3FEF46
:100AD000981748F4E92FF0E0E857FD4F208130E007
:100AE0009F5F90931A02C901089580911902909115
:100AF0001A02891B990B0895CF92DF92EF92FF9211
:100B00000F931F93CF93DF937C01CB018A01209138
:100B10003E02222389F0EB016B01C40ED51ECC15D9
:100B2000DD0569F06991D701ED91FC910190F081AB
:100B3000E02DC7010995F3CF642F0E942D03C80152
:100B4000DF91CF911F910F91FF90EF90DF90CF90A9
:100B50000895CF93DF931F92CDB7DEB769832091BD
:100B60003E022223F9F020916102203258F021E068
:100B700030E0FC013383228390E080E00F90DF912E
:100B8000CF91089580913F02E82FF0E0E05CFD4FA7
:100B9000998190838F5F80933F028093610281E00F
:100BA00090E0ECCF61E0CE0101960E942D03F7CFDB
:100BB000FC01248131E030933E02209360021092C8
:100BC0003F02109261028385682B81E593E00E94C9
:100BD000A90581E00C94620490E080E00895CF9331
:100BE000DF9370E0FB01E255FF4F8491FB01E65675
:100BF000FF4FD4916A577F4FFB01C491CC23A1F0E2
:100C000081110E94C901EC2FF0E0EE0FFF1FE8599F
:100C1000FF4FA591B491EC91ED2381E090E009F4B0
:100C200080E0DF91CF91089580E090E0FACF862FA9
:100C3000642F0C94F201862F642F0C942002EF9203
:100C4000FF920F931F93CF93DF93EC018B017C01F5
:100C500083E7E80EF11CD7018D919C91FE01E159CB
:100C6000FF4F208131E030933E02209360021092CA
:100C70003F0210926102DC01ED91FC910190F08144
:100C8000E02D0995FE01E059FF4F8081823058F038
:100C9000F70180819181DC01ED91FC910190F0815F
:100CA000E02D612F099581E00E946204CF58DF4F4B
:100CB00008831983DF91CF911F910F91FF90EF90DF
:100CC000089521E030E002C0220F331F6A95E2F759
:100CD000FC01EF58FF4F60817181442341F0262BC6
:100CE000372B31832083608171810C941F062095FE
:100CF000309526233723F5CFCF92DF92EF92FF92E4
:100D00000F931F93CF93DF93EC0181E090E07C0180
:100D100002C0EE0CFF1C6A95E2F76E0180E7C80E78
:100D2000D11CD6016C91613208F060E2FE01E159FC
:100D3000FF4F80810E94930310921A028093190240
:100D4000CD58DF4F88819981DC01ED91FC910284BF
:100D5000F385E02D09958C01F6018081823060F0E9
:100D600088819981DC01ED91FC910284F385E02D6D
:100D7000099520E0022B182B0E211F2181E090E025
:100D80000E151F0511F090E080E0DF91CF911F91CB
:100D90000F91FF90EF90DF90CF9008956F927F9228
:100DA0008F929F92AF92BF92CF92DF92EF92FF927B
:100DB0000F931F93CF93DF9381E08093C9030E9429
:100DC000C4020091B9031091BA032091BB03309182
:100DD000BC03AB01BC01401B510B620B730B809138
:100DE000C5039091C603B0E0A0E084179507A6075D
:100DF000B70708F0FAC0712C812C912C5401839410
:100E00008091C403781608F050C0E72CF12CE091D3
:100E1000C103F091C203EE0DFF1D40E060818DE53E
:100E200093E00E94610695018401072C04C0000F25
:100E3000111F221F331F0A94D2F7680100951095E5
:100E4000612C8091C303681608F5C62DD0E0E091AF
:100E5000BF03F091C003EC0FFD1F60818DE593E0AF
:100E60000E947C062496CC0FDD1FC35ADC4F892BD1
:100E700041F4888199818C299D2999838883639481
:100E8000E0CF8881998180239123F7CF8091C1039E
:100E90009091C203E80EF91E41E0F70160818DE5F3
:100EA00093E00E9461067394ABCF2DE5C22E23E040
:100EB000D22EE6018FEF9FEF2F8D38A1232B21F447
:100EC0001C8E9E8F8D8F19A22696F3E0C939DF07FD
:100ED00099F710E096E0B92E8091C303181708F037
:100EE00052C000E0E12EF12CEE0CFF1CC7018B5923
:100EF0009C4F7C012091C403021708F042C0F70107
:100F000060817181002E02C0769567950A94E2F7A0
:100F1000129F90011124200F311DEDE5F3E080E0D8
:100F2000458D568D2417350709F463C08F5F3696BB
:100F30008A30B1F760FF23C0EDE5F3E090E080E098
:100F4000448D411117C0E091BD03F091BE03E20F43
:100F5000F31F4081B89EF001B99EF00D1124E35AB1
:100F6000FC4F448F368F258F10A2178E61E00E94B0
:100F7000D00205C0019636968A30910509F70F5FB9
:100F8000B9CF1F5FA9CF10E0F60181A18111182F01
:100F9000F6E0CF0ED11CCC15DD05B1F70E94C402DE
:100FA0006093B9037093BA038093BB039093BC031F
:100FB0001123D9F080917E038823B9F080917C03BE
:100FC00090917D03019789F480917903DF91CF910E
:100FD0001F910F91FF90EF90DF90CF90BF90AF9057
:100FE0009F908F907F906F9008951092C90380E03A
:100FF000EDCF6170BCCF0F931F93CF938C01C62FA1
:101000000E94D8056C2F6460C8010E94D8056C2F1F
:101010006B7FC8010E94D80583EC90E00197F1F73F
:10102000CF911F910F9108950F931F93CF93DF934B
:101030008C01D62FC42F607F642B0E94FB0780E1B8
:10104000D89FB00111246C2BC801DF91CF911F9163
:101050000F910C94FB07CF93DF93CDB7DEB72897A2
:101060000FB6F894DEBF0FBECDBF98E0E9E1F1E026
:10107000DE01119601900D929A95E1F79091DA03B5
:10108000981710F48FEF890F90E0880F991F21E0D7
:1010900030E02C0F3D1F820F931FFC0160816068C0
:1010A00040E082ED93E028960FB6F894DEBF0FBEC5
:1010B000CDBFDF91CF910C94140840E061E082ED48
:1010C00093E00E9414088BE39FE10197F1F70895E4
:1010D00041E00E94140881E090E00895FB01019036
:1010E0000020E9F73197AF01461B570BDC01ED916A
:1010F000FC910280F381E02D09940F931F93CF930D
:10110000DF93EC0188819981009759F02A813B8116
:101110002617370730F081E0DF91CF911F910F91B3
:1011200008958B016F5F7F4F0E94B412009759F0B2
:10113000998388831B830A832C813D81232B59F754
:10114000FC011082E8CF80E0E7CFCF93DF93EC0182
:1011500088819981009711F00E942B1219821882C0
:101160001D821C821B821A82DF91CF9108950F93FA
:101170001F93CF93DF93EC010C811D810F5F1F4FF5
:10118000B8010E947D08882391F0288139818C81E3
:101190009D8166EC71E0820F931F0E947A131D837C
:1011A0000C83CE01DF91CF911F910F910895CE0155
:1011B0000E94A508F6CFEF92FF920F931F93CF9353
:1011C000DF93EC01FB01E080F180E114F10411F107
:1011D0000481158101151105A9F08C819D81080FED
:1011E000191FB801CE010E947D08882399F028813B
:1011F00039818C819D81B701820F931F0E947A13E0
:101200001D830C83CE01DF91CF911F910F91FF9031
:10121000EF900895CE010E94A508F4CFEF92FF92BF
:101220000F931F93CF93DF93EC017B018A01BA01E7
:101230000E947D0881110BC0CE010E94A508CE013D
:10124000DF91CF911F910F91FF90EF9008951D8333
:101250000C83B701888199810E947A13F0CFEF92B5
:10126000FF920F931F93CF93DF93CDB7DEB76297B3
:101270000FB6F894DEBF0FBECDBF8C01CB01F801D5
:101280001182108213821282158214824AE09E011A
:101290002F5F3F4F7901B9010E94FB10F7010190C8
:1012A0000020E9F73197AF014E195F09B701C80176
:1012B0000E940E0962960FB6F894DEBF0FBECDBF36
:1012C000DF91CF911F910F91FF90EF900895CF93F1
:1012D000DF93EC01FB018617970749F0608171816C
:1012E0006115710541F0448155810E940E09CE01BE
:1012F000DF91CF9108950E94A508F9CFFC011182DA
:1013000010821382128215821482FB010190002048
:10131000E9F73197AF01461B570B0C940E09FC01FE
:1013200080819181009711F00C942B120895CF9336
:10133000DF93CDB7DEB76E970FB6F894DEBF0FBE62
:10134000CDBF1092350210923402109231021092E9
:10135000300210922D0210922C020E945D0880E053
:101360000E942B086091380270913902CE010196DB
:101370000E942F096BE571E0CE0107960E947E095D
:10138000BE016F5F7F4FCE0107960E94DB080E946F
:10139000B7081A8E198E1C8E1B8E1E8E1D8EBC01D8
:1013A000CE0149960E946709CE0107960E948F09D7
:1013B000CE0101960E948F09CE0149960E94E0005D
:1013C00081E00E942B086091320270913302CE01BD
:1013D00001960E942F0969E671E0CE0107960E94EE
:1013E0007E09BE016F5F7F4FCE0107960E94DB082A
:1013F0000E94B7081C8A1B8A1E8A1D8A188E1F8AA3
:10140000BC01CE0143960E946709CE0107960E9457
:101410008F09CE0101960E948F09CE0143960E944A
:10142000E00082E00E942B0860912E0270912F0252
:10143000CE0101960E942F0967E771E0CE01079661
:101440000E947E09BE016F5F7F4FCE0107960E940A
:10145000DB080E94B7081E861D86188A1F861A8A16
:10146000198ABC01CE010D960E946709CE0107962C
:101470000E948F09CE0101960E948F09CE010D9620
:101480000E94E000CE010D960E948F09CE01439686
:101490000E948F09CE0149960E948F098AE392E04B
:1014A000909337028093360210923C0281E0809341
:1014B0003D026E960FB6F894DEBF0FBECDBFDF9132
:1014C000CF91089585ED8093BC008091AA02909100
:1014D000AB02A091AC02B091AD020796A11DB11D67
:1014E00023E0B695A795979587952A95D1F72091F2
:1014F000BC0024FD03C01092A80208954091AA02E6
:101500005091AB026091AC027091AD02452B462B1D
:10151000472B69F30097A105B10541F025E32A9512
:10152000F1F700000197A109B109E1CF8091A9026B
:101530000C9472031F920F920FB60F9211242F93E7
:101540003F934F935F936F937F938F939F93AF934B
:10155000BF93EF93FF938EEA92E00E943A01FF91CE
:10156000EF91BF91AF919F918F917F916F915F911B
:101570004F913F912F910F900FBE0F901F90189594
:101580001F920F920FB60F9211242F938F939F9358
:10159000EF93FF93E091BE02F091BF028081E09152
:1015A000C402F091C50282FD1BC090818091C702E8
:1015B0008F5F8F732091C802821741F0E091C702BC
:1015C000F0E0E255FD4F958F8093C702FF91EF91B8
:1015D0009F918F912F910F900FBE0F901F90189594
:1015E0008081F4CF1F920F920FB60F9211242F9388
:1015F0003F938F939F93AF93BF9380910D029091F0
:101600000E02A0910F02B091100230910C0223E063
:10161000230F2D3758F50196A11DB11D20930C0203
:1016200080930D0290930E02A0930F02B0931002CC
:101630008091110290911202A0911302B0911402B4
:101640000196A11DB11D8093110290931202A093E7
:101650001302B0931402BF91AF919F918F913F916C
:101660002F910F900FBE0F901F90189526E8230F13
:101670000296A11DB11DD2CF1F920F920FB60F92ED
:1016800011242F933F934F935F936F937F938F9387
:101690009F93AF93BF93EF93FF938091B900887F9F
:1016A000803609F44AC0F0F5883209F4A7C018F56D
:1016B000803109F49BC0B8F4882309F4F9C088305C
:1016C00009F494C0FF91EF91BF91AF919F918F91D9
:1016D0007F916F915F914F913F912F910F900FBE2E
:1016E0000F901F901895883109F488C0803251F707
:1016F0008093860214C0803409F49DC040F4803386
:10170000B9F38833F9F68093860285ECB0C0803552
:1017100009F485C0883509F496C0883499F60E948A
:10172000620AD0CF883909F48CC038F5883729F09F
:1017300050F4883611F0803729F683E08093A802B0
:1017400010920B0257C0883809F47BC0803919F019
:10175000803809F0B7CF80910B02803208F071C059
:10176000E0910B0281E08E0F80930B028091BB0011
:10177000F0E0E551FE4F80833DC0803B39F0E0F45E
:10178000803A09F479C0883A09F09CCF84E08093CC
:10179000A8021092EA011092E901E0911702F0917B
:1017A000180209958091E90181110FC081E08093B1
:1017B000E9011092C90109C0803C09F4A6CF883C18
:1017C00009F4A3CF883B09F07DCFE091EA0181E0E5
:1017D0008E0F8093EA01F0E0E753FE4F8081809303
:1017E000BB009091EA018091E90129C080918302B8
:1017F0008093BB0085EC8093BC0064CF9091850200
:1018000080918402981758F5E091850281E08E0F4F
:1018100080938502F0E0EE59FD4F8081E9CFE091A1
:10182000850281E08E0F809385028091BB00F0E0FD
:10183000EE59FD4F80839091850280918402981724
:10184000C8F285E8D8CFE091850281E08E0F8093C1
:1018500085028091BB00F0E0EE59FD4F80838091BE
:10186000870281115CCF81E08093820284EA8093B9
:10187000BC001092A80226CF85EC8093BC00109289
:10188000A80280910B02803230F4E0910B02F0E06C
:10189000E551FE4F108260910B0270E0E09115025D
:1018A000F09116028BEE91E0099510920B020ACF8F
:1018B0001092860234CF1092B1021092B00288EEDC
:1018C00093E0A0E0B0E08093B2029093B302A093C3
:1018D000B402B093B50225E231E03093AF02209319
:1018E000AE0225EC30E03093BB022093BA0224EC28
:1018F00030E03093BD022093BC0220EC30E0309306
:10190000BF022093BE0221EC30E03093C10220934D
:10191000C00222EC30E03093C3022093C20226ECD6
:1019200030E03093C5022093C4021092C702109297
:10193000C8021092C9021092CA0210925403109267
:1019400053038093550390935603A0935703B0938A
:10195000580387E391E090935203809351031092D0
:10196000D5031092D40389E491E09093D30380933C
:10197000D20384E28093D60384E18093DB0384E086
:101980008093DC031092DD0310925F0310926303D7
:101990001092620310926403E9E7F3E0108214826C
:1019A00013821582369683E0E53BF807B9F783E0AA
:1019B00091E09093C0038093BF0380E091E0909307
:1019C000C2038093C10384E08093C30383E08093C8
:1019D000C40387E091E09093BE038093BD038AE047
:1019E00090E09093C6038093C50384EF91E09093B9
:1019F000C8038093C7031092CB031092CA031092BE
:101A0000B9031092BA031092BB031092BC03109258
:101A1000C90385E591E090935E0380935D0380E2C6
:101A20008093CC0381E08093CD0381E593E0909394
:101A3000D1038093D00368E871E08BE493E00C94C9
:101A40007E09CF93DF93CDB7DEB7A7970FB6F89493
:101A5000DEBF0FBECDBF789484B5826084BD84B5EF
:101A6000816084BD85B5826085BD85B5816085BD99
:101A700080916E00816080936E0010928100809151
:101A800081008260809381008091810081608093D9
:101A90008100809180008160809380008091B100FE
:101AA00084608093B1008091B00081608093B00029
:101AB00080917A00846080937A0080917A008260BD
:101AC00080937A0080917A00816080937A0080917F
:101AD0007A00806880937A001092C100E091BE0283
:101AE000F091BF0282E08083E091BA02F091BB02E4
:101AF0001082E091BC02F091BD028FEC80831092C5
:101B0000C602E091C202F091C30286E08083E091B8
:101B1000C002F091C102808180618083E091C002A7
:101B2000F091C102808188608083E091C002F091D1
:101B3000C102808180688083E091C002F091C1027F
:101B400080818F7D808310921A0210921902109268
:101B50003F02109261020E94540381EB90E0909347
:101B600018028093170282EB90E090931602809304
:101B700015026FEF7FEF8DE593E00E941F066091E5
:101B8000CD03613208F060E28091CC030E949303A0
:101B900010921A02809319028091D0039091D10380
:101BA000DC01ED91FC910284F385E02D0995909381
:101BB000CF038093CE038091CD038230B8F0809123
:101BC000D0039091D103DC01ED91FC910284F38567
:101BD000E02D099520E0382F8091CE039091CF031E
:101BE000822B932B9093CF038093CE0310921A02F3
:101BF0001092190210923F02109261020E94540347
:101C000081EB90E0909318028093170282EB90E0B2
:101C100090931602809315021092D7038091DC03F3
:101C2000823018F098E09093D7038093DA0362E350
:101C300070E080E090E00E9492026091DD0382ED0E
:101C400093E00E94D80568EE73E080E090E00E9487
:101C5000920260E382ED93E00E94FB070BE416E43E
:101C6000C8010197F1F760E382ED93E00E94FB0762
:101C7000C8010197F1F760E382ED93E00E94FB0752
:101C800083E592E00197F1F760E282ED93E00E9434
:101C9000FB076091D703606240E082ED93E00E9411
:101CA000140884E08093D80340E06CE082ED93E078
:101CB0000E9414080E945D0882E08093D90340E0EE
:101CC00066E082ED93E00E94140840E062E082ED5D
:101CD00093E00E9414088BE39FE10197F1F788E0FD
:101CE0008093DD0360E082ED93E00E94D80561E01F
:101CF00085E00E94200261E084E00E94200261E011
:101D000083E00E94200261E082E00E94200261E004
:101D100086E00E9420020E9497099AE0492E512CE9
:101D2000612C712C20E3222E22E0322E34E3832E0C
:101D300032E0932E84EFA82EBB24B39481E00E945E
:101D40005C026C01990FEE08FF08F7FE89C16DE295
:101D50008EEA92E00E945C0122273327A9012C1908
:101D60003D094E095F0919A28E010F5D1F4FCA017F
:101D7000B901A30192010E946711605DF8016293AD
:101D80008F01211531054105510589F7011511050F
:101D900029F0B8018EEA92E00E946E0866E871E0D0
:101DA0008EEA92E00E946E0868EE73E080E090E0B8
:101DB0000E94920280913D02882309F4C1C10E94D1
:101DC000CE06882369F0E0913602F0913702082EA2
:101DD000000C990BC0979183808381E080933C0233
:101DE00080913C02882309F449C010923D02809101
:101DF0003A0290913B028130910509F047C1609110
:101E0000380270913902CE0101960E942F0969E8CB
:101E100071E0CE0182960E947E09BE016F5F7F4F06
:101E2000CE0182960E94DB080E94B708BC018BE4B9
:101E300093E00E946709CE0182960E948F09CE012D
:101E400001960E948F09909237028092360210927A
:101E50003C020E945D0880E00E942B088BE493E026
:101E60000E94E00081E00E942B0864EB71E082EDAB
:101E700093E00E946E0882E00E942B0883E00E949B
:101E80005C02DC01AA9DC001AB9D900DBA9D900D36
:101E9000112497FF02C081509C4F092F059505958D
:101EA000192F110F110BE0903802F0903902E01653
:101EB000F106ACF51092220280912102811111C02D
:101EC0008091200281110DC00E94C40260931C0207
:101ED00070931D0280931E0290931F0281E08093F5
:101EE0002102809121028823D1F00E94C402209116
:101EF0001C0230911D0240911E0250911F02621B74
:101F0000730B840B950B69397A438105910538F081
:101F100080912002811103C081E080932002C701DB
:101F20000196801791076CF4109222028091200292
:101F3000882339F080911B02811103C081E08093D6
:101F40001B020E151F050CF045C1109221021092C4
:101F5000200210921B0280912202811103C081E0B5
:101F6000809322026091210285E00E94F20160913B
:101F7000200284E00E94F20160911B0283E00E9433
:101F8000F2016091220282E00E94F20182E00E944E
:101F90005C028C0180912B0281112BC00E94C40233
:101FA00020912702309128024091290250912A0263
:101FB000621B730B840B950B61337547810591058B
:101FC000B8F180913202909133020817190784F515
:101FD00081E080932B020E94C402609323027093DD
:101FE0002402809325029093260280912B0288235D
:101FF000F9F00E94C4020091230210912402209162
:10200000250230912602601B710B820B930B61320B
:102010007E448105910560F010922B020E94C4025B
:1020200060932702709328028093290290932A02DA
:1020300060912B0286E00E94F2016AE070E080E08D
:1020400090E00E94920220E030E0232B09F476CE4B
:102050000E942601882309F46DCE0E9400006ACEFA
:10206000A701960119A28E010F5D1F4FCA01B90188
:10207000A30192010E946711605DD8016E938D01EA
:10208000211531054105510589F780CE8230910532
:1020900049F56091320270913302CE0101960E949F
:1020A0002F0967E971E0CE0182960E947E09BE0188
:1020B0006F5F7F4FCE0182960E94DB080E94B708B7
:1020C000BC018BE493E00E946709CE0182960E94D6
:1020D0008F09CE0101960E948F093092370220921B
:1020E0003602B5CE039709F0B2CE60912E02709100
:1020F0002F02CE0101960E942F0965EA71E0CE0100
:1021000082960E947E09BE016F5F7F4FCE0182964C
:102110000E94DB080E94B708BC018BE493E00E9498
:102120006709CE0182960E948F09CE0101960E9416
:102130008F09ECE2F2E0F0933702E093360287CEAB
:1021400080913C028823D9F080913402909135022D
:10215000909339028093380280913002909131023D
:10216000909333028093320280912C0290912D0241
:1021700090932F0280932E020E9497097FCE0E9497
:10218000CE06182F882309F479CE41E0682F82ED1E
:1021900093E00E9414081A3221F481E080933C02FB
:1021A0006DCE133249F3E0913602F091370280810F
:1021B00091814AE0489F9001499F300D1124812F61
:1021C000110F990BC097820F931F918380831092F8
:1021D0003C0254CEE016F10609F0C4CE1092210262
:1021E0001092200210921B0210922202BBCE8BE4AE
:1021F00093E00C948F09BB274A3031F4992322F4E1
:10220000BDE2909581959F4F0C940711BB27FB0170
:102210005527AA27880F991FAA1FA41710F0A41BDF
:1022200083955051B9F7A05DAA3308F0A95DA19339
:10223000009779F7B111B1931192CB010C94201151
:10224000DC01FC01672F71917723E1F7329704C01D
:102250007C916D9370836291AE17BF07C8F30895A8
:102260002F923F924F925F926F927F928F929F92A6
:10227000AF92BF92CF92DF92EF92FF920F931F9394
:10228000CF93DF93CDB7DEB7CA1BDB0B0FB6F89445
:10229000DEBF0FBECDBF09942A88398848885F8485
:1022A0006E847D848C849B84AA84B984C884DF80F6
:1022B000EE80FD800C811B81AA81B981CE0FD11DDA
:1022C0000FB6F894DEBF0FBECDBFED010895A1E2B9
:1022D0001A2EAA1BBB1BFD010DC0AA1FBB1FEE1FA0
:1022E000FF1FA217B307E407F50720F0A21BB30BEB
:1022F000E40BF50B661F771F881F991F1A9469F767
:1023000060957095809590959B01AC01BD01CF01C2
:102310000895EE0FFF1F0590F491E02D09940F939F
:102320001F93CF93DF938230910510F482E090E009
:10233000E091E003F091E10330E020E0B0E0A0E0C4
:10234000309799F42115310509F44AC0281B390B3F
:1023500024303105D8F58A819B816115710589F199
:10236000FB0193838283FE0111C040815181028170
:10237000138148175907E0F04817590799F4109747
:1023800061F012960C93129713961C933296CF011C
:10239000DF91CF911F910F9108950093E003109367
:1023A000E103F4CF2115310551F04217530738F0FE
:1023B000A901DB019A01BD01DF01F801C1CFEF01E5
:1023C000F9CF9093E1038093E003CDCFFE01E20FBC
:1023D000F31F819391932250310939832883D7CFFA
:1023E0002091DE033091DF03232B41F4209115016E
:1023F000309116013093DF032093DE032091130107
:10240000309114012115310541F42DB73EB74091AB
:10241000170150911801241B350BE091DE03F09158
:10242000DF03E217F307A0F42E1B3F0B2817390731
:1024300078F0AC014E5F5F4F2417350748F04E0F20
:102440005F1F5093DF034093DE03819391939FCFEF
:10245000F0E0E0E09CCFCF93DF930097E9F0FC0140
:10246000329713821282A091E003B091E103ED0153
:1024700030E020E01097A1F420813181820F931F7A
:102480002091DE033091DF032817390709F061C07E
:10249000F093DF03E093DE03DF91CF910895EA012B
:1024A000CE17DF07E8F54A815B819E014115510592
:1024B000B1F7E901FB83EA8349915991C40FD51F14
:1024C000EC17FD0761F4808191810296840F951FBE
:1024D000E90199838883828193819B838A83F0E0D9
:1024E000E0E012968D919C9113970097B9F52D918C
:1024F0003C911197CD010296820F931F2091DE032C
:102500003091DF032817390739F6309751F51092CB
:10251000E1031092E003B093DF03A093DE03BCCF8E
:10252000D383C28340815181840F951FC817D90777
:1025300061F44E5F5F4F88819981480F591F518325
:1025400040838A819B81938382832115310509F021
:10255000B0CFF093E103E093E0039ECFFD01DC01F7
:10256000C0CF13821282D7CFB0E0A0E0EAEBF2E155
:102570000C9432118C01009751F4CB010E948F1101
:102580008C01C801CDB7DEB7E0E10C944E11FC011F
:10259000E60FF71F9C0122503109E217F30708F4F8
:1025A0009DC0D901CD91DC911197C617D70798F03E
:1025B000C530D10530F3CE0104978617970708F38D
:1025C000C61BD70B2297C193D1936D937C93CF01F8
:1025D0000E942B12D6CF5B01AC1ABD0A4C018C0EA7
:1025E0009D1EA091E003B091E103512C412CF12CF0
:1025F000E12C109731F58091DE039091DF0388156F
:10260000990509F05CC04616570608F058C080913D
:10261000130190911401009741F48DB79EB740913A
:10262000170150911801841B950BE817F90708F062
:1026300055C0F093DF03E093DE03F90171836083FB
:10264000A0CF8D919C91119712966C901297139632
:102650007C901397A815B90559F56C0142E0C40E9A
:10266000D11CCA14DB0420F1AC014A195B09DA0160
:102670001296159780F06282738251834083D9014C
:102680006D937C93E114F10471F0D7011396FC93E0
:10269000EE93129776CF22968C0F9D1FF9019183AE
:1026A0008083F301EFCFF093E103E093E00369CF80
:1026B0004816590608F42C017D01D3019ACFCB01AD
:1026C0000E948F117C01009749F0AE01B8010E9471
:1026D0007113C8010E942B12870153CF10E000E054
:1026E00050CFFB01DC0102C001900D9241505040DF
:1026F000D8F70895FB01DC0101900D920020E1F76D
:10270000089510E0C2E6D0E004C0FE010E948911E5
:0C2710002196C336D107C9F7F894FFCF1B
:10271C0002010003040506313233343536373839BB
:10272C002A30230000E20380000000400014005413
:10273C0000000000005C01B300E900A9011A01F8D7
:10274C00000C0100000000A9057C05EC0552057584
:10275C000562055305000000006808B300EC052C69
:10276C000300000000B00061067C06312D2053658B
:10277C00742074656D70202800322D2053657420F0
:10278C0068756D69202800332D20536574206C69A1
:10279C006768742028000D0A00456E7465722074F9
:1027AC00656D703A202800456E7465722068756DF1
:1027BC00693A202800456E746572206C69676874EC
:1027CC003A202800282A20536176652920282320C6
:0827DC0043616E63656C290086
:00000001FF
