:020000040000FA
:100000000C9463000C948B000C948B000C948B006C
:100010000C948B000C948B000C948B000C948B0034
:100020000C948B000C948B000C948B000C948B0024
:100030000C948B000C948B000C948B000C948B0014
:100040000C94CF0A0C948B000C949D0A0C94770AA4
:100050000C948B000C948B000C948B000C948B00F4
:100060000C94190B0C948B00000000002300260058
:10007000290000000000240027002A0000000000E2
:10008000250028002B0004040404040404040202D4
:100090000202020203030303030301020408102007
:1000A0004080010204081020010204081020000012
:1000B0000008000201000003040700000000000027
:1000C0000000380C201011241FBECFEFD8E0DEBF97
:1000D000CDBF23E0AAECB1E001C01D92A43DB20760
:1000E000E1F711E0A0E0B1E0EAE2F5E202C005903C
:1000F0000D92AA3CB107D9F710E0C2E6D0E004C0E7
:100100002197FE010E949010C136D107C9F70E94C5
:10011000FE0C0C9488120C94000096E0899FD0018C
:100120001124A15BBC4F90967C936E935F9791E0F6
:1001300091969C939197E091BC03F091BD039091AF
:10014000BB03992339F0309751F0811108C0809199
:100150006B030994309719F05C968C91FACF08954F
:10016000089508950895AF92BF92CF92DF92EF92D3
:10017000FF920F931F93CF93DF936C017B018B0151
:10018000040F151FEB015E01AE18BF08C017D107A1
:1001900059F06991D601ED91FC910190F081E02D2B
:1001A000C6010995892B79F7C501DF91CF911F9180
:1001B0000F91FF90EF90DF90CF90BF90AF90089598
:1001C000FC01448155816081718184EC93E00C9441
:1001D000B300FC01538D448D252F30E0842F90E037
:1001E000821B930B541710F0CF9608950197089532
:1001F000FC01918D828D981761F0A28DAE0FBF2FFB
:10020000B11D5D968C91928D9F5F9F73928F90E050
:1002100008958FEF9FEF0895FC01918D828D9817BF
:1002200031F0828DE80FF11D858D90E008958FEFFC
:100230009FEF0895FC01918D228D892F90E0805CC5
:100240009F4F821B91098F739927089580EA92E04E
:100250000E941A0121E0892B09F420E0822F0895E1
:1002600080E090E0892B29F00E94260181110C94F6
:1002700000000895FC01A48DA80FB92FB11DA35A49
:10028000BF4F2C91848D90E001968F739927848FB6
:10029000A689B7892C93A089B1898C9183708064D9
:1002A0008C93938D848D981306C00288F389E02D7A
:1002B00080818F7D80830895EF92FF920F931F932B
:1002C000CF93DF93EC0181E0888F9B8D8C8D981309
:1002D0001AC0E889F989808185FF15C09FB7F89415
:1002E000EE89FF896083E889F98980818370806461
:1002F00080839FBF81E090E0DF91CF911F910F91AC
:10030000FF90EF900895F62E0B8D10E00F5F1F4FBA
:100310000F731127E02E8C8D8E110CC00FB607FCC9
:10032000FACFE889F989808185FFF5CFCE010E9457
:100330003A01F1CFEB8DEC0FFD2FF11DE35AFF4F8A
:10034000F0829FB7F8940B8FEA89FB8980818062E5
:10035000CFCFCF93DF93EC01888D8823B9F0AA89A2
:10036000BB89E889F9898C9185FD03C0808186FD70
:100370000DC00FB607FCF7CF8C9185FFF2CF8081BF
:1003800085FFEDCFCE010E943A01E9CFDF91CF91F9
:100390000895833081F028F4813099F08230A9F0FB
:1003A00008958730A9F08830C9F08430B1F4809185
:1003B00080008F7D03C0809180008F7780938000C4
:1003C000089584B58F7784BD089584B58F7DFBCF64
:1003D0008091B0008F778093B00008958091B00035
:1003E0008F7DF9CF1F93CF93DF93282F30E0F90152
:1003F000E255FF4F8491F901E656FF4FD491F90180
:10040000EA57FF4FC491CC23A9F0162F81110E9407
:10041000C901EC2FF0E0EE0FFF1FE458FF4FA5914C
:10042000B4918FB7F894EC91111108C0D095DE23E8
:10043000DC938FBFDF91CF911F910895DE2BF8CF12
:10044000CF93DF9390E0FC01E656FF4F24918A574B
:100450009F4FFC0184918823C9F090E0880F991F79
:10046000FC01EE58FF4FA591B491FC01E458FF4FF9
:10047000C591D49161110DC09FB7F8948C912095CE
:1004800082238C938881282328839FBFDF91CF917B
:100490000895623051F49FB7F8943C91822F809573
:1004A00083238C93E8812E2BEFCF8FB7F894EC91B8
:1004B0002E2B2C938FBFEACF3FB7F8948091130275
:1004C00090911402A0911502B091160226B5A89B36
:1004D00005C02F3F19F00196A11DB11D3FBFBA2FD6
:1004E000A92F982F8827BC01CD01620F711D811D96
:1004F000911D42E0660F771F881F991F4A95D1F71B
:1005000008958F929F92AF92BF92CF92DF92EF9217
:10051000FF924B015C010E945C026B017C010E9416
:100520005C026C197D098E099F09683E7340810544
:100530009105A8F321E0821A9108A108B10888EE7C
:10054000C80E83E0D81EE11CF11C81149104A104A3
:10055000B10429F7FF90EF90DF90CF90BF90AF905C
:100560009F908F9008952FB7F89460910F0270912B
:10057000100280911102909112022FBF08950F93E3
:100580001F93CF93DF93C82FD62F86E0C89FF0012B
:100590001124E15BFC4F11A2878D90A18130910560
:1005A000F1F058F082309105F1F1039709F440C061
:1005B000DF91CF911F910F9108956623C9F361E0F8
:1005C00070E08C2F0E948D000E94B3026093A703FD
:1005D0007093A8038093A9039093AA03E9CF0E9484
:1005E000B3020091A7031091A8032091A9033091B1
:1005F000AA03AB01BC01401B510B620B730B809132
:10060000B9039091BA03B0E0A0E084179507A6075C
:10061000B70748F462E070E08C2FDF91CF911F9113
:100620000F910C948D0063E070E0D111C1CFF4CF35
:1006300070E060E0F1CF08952091EB01260F3327A1
:10064000331F21323105ECF420919A02FC0190E035
:1006500080E0243069F082E00895A091EB012191BF
:10066000AC0145535E4FA40FB52FB11D2C930196DD
:10067000861798F38091EB01680F6093EB0180E09F
:10068000089581E0089510929A0281E080937902A2
:100690001092740261E082E10E94F20161E083E164
:1006A0000E94F201E9EBF0E080818E7F80838081FF
:1006B0008D7F808388E48093B80085E48093BC00BC
:1006C0000895CF93DF9391E09093CA018823B9F006
:1006D000C091B800D091BA008091BC008A7B809311
:1006E000BC0060E082E10E94F20160E083E10E94D0
:1006F000F2010E944303D093BA00C093B800DF9187
:10070000CF910895CF92DF92EF92FF920F931F93B4
:10071000CF93DF93D82FC62F613208F098C00E9484
:100720005C026B017C0180919A0281116BC081E0B7
:1007300080939A02809379029FEF909378021092AF
:1007400077029C0F909376028093750280917502D8
:10075000DD0FD82BD093750280917402813009F09F
:1007600078C0109274020E945C026B017C0180913F
:1007700075028093BB0080919C0290919D02A09194
:100780009E02B0919F02892B8A2B8B2BA1F00E9495
:100790005C0200919C0210919D0220919E0230917A
:1007A0009F026C197D098E099F09061717072807F4
:1007B000390708F448C08091BC0083FDD8CF85EC90
:1007C0008093BC000E945C026B017C0180919A02C4
:1007D000813009F440C0809177028C1710F4C091E9
:1007E0007702E4E5F2E0AAE7B2E080E08C1355C0BE
:1007F0008C2FDF91CF911F910F91FF90EF90DF90A1
:10080000CF90089580919C0290919D02A0919E02AC
:10081000B0919F02892B8A2B8B2B09F484CF0E94E5
:100820005C0200919C0210919D0220919E023091E9
:100830009F026C197D098E099F0906171707280763
:10084000390708F070CF80919B020E946103C0E0DD
:10085000CFCF85EEB5CF80919C0290919D02A09163
:100860009E02B0919F02892B8A2B8B2B09F4AECF6D
:100870000E945C0200919C0210919D0220919E02B8
:1008800030919F026C197D098E099F090617170781
:100890002807390708F09ACFD6CF91919D938F5FA3
:1008A000A5CF8F929F92AF92BF92CF92DF92EF929D
:1008B000FF920F931F93CF93DF93D0915302D132C6
:1008C00008F0D7C0182FC09152020E945C026B0141
:1008D0007C0180919A0281116BC082E080939A0220
:1008E000109379028FEF8093780210927702D09361
:1008F0007602A2E3B2E0E4E5F2E080E0D81391C032
:100900001092750280917502CC0FC82BC0937502AE
:1009100080917402813009F088C0109274020E94A4
:100920005C026B017C01809175028093BB00809119
:100930009C0290919D02A0919E02B0919F02892BF2
:100940008A2B8B2BA1F00E945C0200919C021091DB
:100950009D0220919E0230919F026C197D098E09A3
:100960009F09061717072807390708F442C0809126
:10097000BC0083FDD8CF85EC8093BC000E945C0254
:100980006B017C0180919A02823009F450C0809101
:1009900078028F3F09F46FC080917802803209F4A9
:1009A0006CC080917802803309F469C084E026C06D
:1009B00080919C0290919D02A0919E02B0919F0215
:1009C000892B8A2B8B2B09F484CF0E945C028090A8
:1009D0009C0290909D02A0909E02B0909F026C1984
:1009E0007D098E099F0986169706A806B90608F0A4
:1009F00070CF80919B020E94610385E010923102CA
:100A00001092530210923002DF91CF911F910F91FB
:100A1000FF90EF90DF90CF90BF90AF909F908F901E
:100A200008959D9191938F5F69CF85EEA5CF8091B9
:100A30009C0290919D02A0919E02B0919F02892BF1
:100A40008A2B8B2B09F49ECF0E945C0200919C02A2
:100A500010919D0220919E0230919F026C197D0998
:100A60008E099F09061717072807390708F08ACF4C
:100A7000C0CF81E0C3CF80E0C1CF82E0BFCF83E0B1
:100A8000BDCF0895E0911C0280911B02E81730F45D
:100A9000F0E0E658FD4F808190E008958FEF9FEFE2
:100AA000089590911C0280911B022FEF3FEF981741
:100AB00048F4E92FF0E0E658FD4F208130E09F5FD9
:100AC00090931C02C901089580911B0290911C0211
:100AD000891B990B0895CF92DF92EF92FF920F93AB
:100AE0001F93CF93DF937C01CB018A0120913002C9
:100AF000222389F0EB016B01C40ED51ECC15DD0558
:100B000069F06991D701ED91FC910190F081E02DA0
:100B1000C7010995F3CF642F0E941C03C801DF9120
:100B2000CF911F910F91FF90EF90DF90CF9008959C
:100B3000CF93DF931F92CDB7DEB769832091300248
:100B40002223F9F020915302203258F021E030E0C6
:100B5000FC013383228390E080E00F90DF91CF91FE
:100B6000089580913102E82FF0E0EE5CFD4F99810D
:100B700090838F5F809331028093530281E090E0F5
:100B8000ECCF61E0CE0101960E941C03F7CFFC017F
:100B9000248131E0309330022093520210923102CE
:100BA000109253028385682B83E493E00E9498059A
:100BB00081E00C94510490E080E00895CF93DF939E
:100BC00070E0FB01E255FF4F8491FB01E656FF4FB9
:100BD000D4916A577F4FFB01C491CC23A1F08111BE
:100BE0000E94C901EC2FF0E0EE0FFF1FE859FF4F04
:100BF000A591B491EC91ED2381E090E009F480E0BF
:100C0000DF91CF91089580E090E0FACF862F642F96
:100C10000C94F201862F642F0C942002EF92FF9225
:100C20000F931F93CF93DF93EC018B017C0183E73C
:100C3000E80EF11CD7018D919C91FE01E159FF4F07
:100C4000208131E030933002209352021092310221
:100C500010925302DC01ED91FC910190F081E02DA6
:100C60000995FE01E059FF4F8081823058F0F7016D
:100C700080819181DC01ED91FC910190F081E02D6A
:100C8000612F099581E00E945104CF58DF4F0883FE
:100C90001983DF91CF911F910F91FF90EF900895ED
:100CA00021E030E002C0220F331F6A95E2F7FC0119
:100CB000EF58FF4F60817181442341F0262B372B81
:100CC00031832083608171810C940E0620953095CC
:100CD00026233723F5CF0F931F93CF938C01C62F75
:100CE0000E94C7056C2F6460C8010E94C7056C2F65
:100CF0006B7FC8010E94C70583EC90E00197F1F774
:100D0000CF911F910F9108950F931F93CF93DF936E
:100D10008C01D62FC42F607F642B0E946B0680E16C
:100D2000D89FB00111246C2BC801DF91CF911F9186
:100D30000F910C946B06CF93DF93CDB7DEB7289756
:100D40000FB6F894DEBF0FBECDBF98E0E9E1F1E049
:100D5000DE01119601900D929A95E1F79091CC03E6
:100D6000981710F48FEF890F90E0880F991F21E0FA
:100D700030E02C0F3D1F820F931FFC0160816068E3
:100D800040E084EC93E028960FB6F894DEBF0FBEE7
:100D9000CDBFDF91CF910C94840640E061E084ECFC
:100DA00093E00E9484068BE39FE10197F1F7089599
:100DB00041E00E94840681E090E00895CF92DF92A6
:100DC000EF92FF920F931F93CF93DF93EC0181E09B
:100DD00090E07C0102C0EE0CFF1C6A95E2F76E0108
:100DE00080E7C80ED11CD6016C91613208F060E238
:100DF000FE01E159FF4F80810E94820310921C0284
:100E000080931B02CD58DF4F88819981DC01ED91E1
:100E1000FC910284F385E02D09958C01F601808117
:100E2000823060F088819981DC01ED91FC9102842F
:100E3000F385E02D099520E0022B182B0E211F21B0
:100E400081E090E00E151F0511F090E080E0DF9149
:100E5000CF911F910F91FF90EF90DF90CF90089569
:100E60006F927F928F929F92AF92BF92CF92DF92BA
:100E7000EF92FF920F931F93CF93DF9381E08093C4
:100E8000BB030E94B3020091AB031091AC0320910D
:100E9000AD033091AE03AB01BC01401B510B620BA3
:100EA000730B8091B7039091B803B0E0A0E0841772
:100EB0009507A607B70708F0FAC0712C812C912C72
:100EC000540183948091B603781608F050C0E72C43
:100ED000F12CE091B303F091B403EE0DFF1D40E05F
:100EE00060818FE493E00E94500695018401072CF5
:100EF00004C0000F111F221F331F0A94D2F768018C
:100F000000951095612C8091B503681608F5C62DE3
:100F1000D0E0E091B103F091B203EC0FFD1F6081CE
:100F20008FE493E00E94DE062496CC0FDD1FC15BA8
:100F3000DC4F892B41F4888199818C299D299983E3
:100F400088836394E0CF8881998180239123F7CFB0
:100F50008091B3039091B403E80EF91E41E0F701CC
:100F600060818FE493E00E9450067394ABCF2FE42E
:100F7000C22E23E0D22EE6018FEF9FEF2F8D38A1F6
:100F8000232B21F41C8E9E8F8D8F19A22696F3E0C1
:100F9000CB38DF0799F710E096E0B92E8091B503C2
:100FA000181708F052C000E0E12EF12CEE0CFF1CE7
:100FB000C701895A9C4F7C012091B603021708F0A3
:100FC00042C0F70160817181002E02C0769567955D
:100FD0000A94E2F7129F90011124200F311DEFE4D3
:100FE000F3E080E0458D568D2417350709F463C082
:100FF0008F5F36968A30B1F760FF23C0EFE4F3E0ED
:1010000090E080E0448D411117C0E091AF03F09172
:10101000B003E20FF31F4081B89EF001B99EF00DBE
:101020001124E15BFC4F448F368F258F10A2178E61
:1010300061E00E94BF0205C0019636968A30910594
:1010400009F70F5FB9CF1F5FA9CF10E0F60181A1AB
:101050008111182FF6E0CF0ED11CCC15DD05B1F7AC
:101060000E94B3026093AB037093AC038093AD0313
:101070009093AE031123D9F0809170038823B9F0C7
:1010800080916E0390916F03019789F480916B03B7
:10109000DF91CF911F910F91FF90EF90DF90CF9054
:1010A000BF90AF909F908F907F906F900895109217
:1010B000BB0380E0EDCF6170BCCF0F931F93CF9344
:1010C000DF93EC0188819981009759F02A813B8157
:1010D0002617370730F081E0DF91CF911F910F91F4
:1010E00008958B016F5F7F4F0E94BB11009759F0ED
:1010F000998388831B830A832C813D81232B59F795
:10110000FC011082E8CF80E0E7CFCF93DF93EC01C2
:1011100088819981009711F00E94321119821882FA
:101120001D821C821B821A82DF91CF9108950F933A
:101130001F93CF93DF93EC010C811D810F5F1F4F35
:10114000B8010E945D08882391F0288139818C8143
:101150009D8167EC71E0820F931F0E9481121D83B5
:101160000C83CE01DF91CF911F910F910895CE0195
:101170000E948508F6CFEF92FF920F931F93CF93B3
:10118000DF93EC01FB01E080F180E114F10411F147
:101190000481158101151105A9F08C819D81080F2D
:1011A000191FB801CE010E945D08882399F028819B
:1011B00039818C819D81B701820F931F0E9481121A
:1011C0001D830C83CE01DF91CF911F910F91FF9072
:1011D000EF900895CE010E948508F4CFEF92FF9220
:1011E0000F931F93CF93DF93EC017B018A01BA0128
:1011F0000E945D0881110BC0CE010E948508CE01BE
:10120000DF91CF911F910F91FF90EF9008951D8373
:101210000C83B701888199810E948112F0CFEF92EF
:10122000FF920F931F93CF93DF93CDB7DEB76297F3
:101230000FB6F894DEBF0FBECDBF8C01CB01F80115
:101240001182108213821282158214824AE09E015A
:101250002F5F3F4F7901B9010E942410F7010190DF
:101260000020E9F73197AF014E195F09B701C801B6
:101270000E94EE0862960FB6F894DEBF0FBECDBF97
:10128000DF91CF911F910F91FF90EF900895CF9331
:10129000DF93EC01FB018617970749F060817181AC
:1012A0006115710541F0448155810E94EE08CE011F
:1012B000DF91CF9108950E948508F9CFFC0111823A
:1012C00010821382128215821482FB010190002089
:1012D000E9F73197AF01461B570B0C94EE08FC0160
:1012E00080819181009711F00C9432110895CF9371
:1012F000DF93CDB7DEB76E970FB6F894DEBF0FBEA3
:10130000CDBF1092290210922702109225020E944E
:10131000CD0680E00E949B0660912C02062E000CF8
:10132000770BCE0101960E940F096BE571E0CE01AB
:1013300007960E945E09BE016F5F7F4FCE01079640
:101340000E94BB080E9497081A8E198E1C8E1B8E55
:101350001E8E1D8EBC01CE0149960E944709CE010A
:1013600007960E946F09CE0101960E946F09CE0177
:1013700049960E94E00081E00E949B06609128024D
:10138000062E000C770BCE0101960E940F0969E62C
:1013900071E0CE0107960E945E09BE016F5F7F4F2C
:1013A000CE0107960E94BB080E9497081C8A1B8AE0
:1013B0001E8A1D8A188E1F8ABC01CE0143960E9488
:1013C0004709CE0107960E946F09CE0101960E943F
:1013D0006F09CE0143960E94E00082E00E949B06C6
:1013E00060912602062E000C770BCE0101960E941A
:1013F0000F0967E771E0CE0107960E945E09BE0102
:101400006F5F7F4FCE0107960E94BB080E9497082E
:101410001E861D86188A1F861A8A198ABC01CE016B
:101420000D960E944709CE0107960E946F09CE01D2
:1014300001960E946F09CE010D960E94E000CE0138
:101440000D960E946F09CE0143960E946F09CE014E
:1014500049960E946F098DE292E090932B0280934F
:101460002A0210922E0281E080932F026E960FB610
:10147000F894DEBF0FBECDBFDF91CF91089585ED0B
:101480008093BC0080919C0290919D02A0919E024D
:10149000B0919F020796A11DB11D23E0B695A795B7
:1014A000979587952A95D1F72091BC0024FD03C01C
:1014B00010929A02089540919C0250919D02609171
:1014C0009E0270919F02452B462B472B69F3009794
:1014D000A105B10541F025E32A95F1F70000019738
:1014E000A109B109E1CF80919B020C9461031F9285
:1014F0000F920FB60F9211242F933F934F935F9348
:101500006F937F938F939F93AF93BF93EF93FF93CB
:1015100080EA92E00E943A01FF91EF91BF91AF9172
:101520009F918F917F916F915F914F913F912F91FB
:101530000F900FBE0F901F9018951F920F920FB62D
:101540000F9211242F938F939F93EF93FF93E0912A
:10155000B002F091B1028081E091B602F091B70241
:1015600082FD1BC090818091B9028F5F8F732091A3
:10157000BA02821741F0E091B902F0E0E056FD4F67
:10158000958F8093B902FF91EF919F918F912F9149
:101590000F900FBE0F901F9018958081F4CF1F926F
:1015A0000F920FB60F9211242F933F938F939F9317
:1015B000AF93BF9380910F0290911002A0911102FE
:1015C000B091120230910E0223E0230F2D3758F50F
:1015D0000196A11DB11D20930E0280930F029093DE
:1015E0001002A0931102B093120280911302909105
:1015F0001402A0911502B09116020196A11DB11D11
:101600008093130290931402A0931502B0931602D4
:10161000BF91AF919F918F913F912F910F900FBEEE
:101620000F901F90189526E8230F0296A11DB11D5B
:10163000D2CF1F920F920FB60F9211242F933F9388
:101640004F935F936F937F938F939F93AF93BF93CA
:10165000EF93FF938091B900887F803609F44AC0E8
:10166000F0F5883209F4A7C018F5803109F49BC061
:10167000B8F4882309F4F9C0883009F494C0FF91C4
:10168000EF91BF91AF919F918F917F916F915F91FA
:101690004F913F912F910F900FBE0F901F90189573
:1016A000883109F488C0803251F78093780214C0E1
:1016B000803409F49DC040F48033B9F38833F9F6DF
:1016C0008093780285ECB0C0803509F485C08835F8
:1016D00009F496C0883499F60E943F0AD0CF883921
:1016E00009F48CC038F5883729F050F4883611F0A9
:1016F000803729F683E080939A0210920D0257C03A
:10170000883809F47BC0803919F0803809F0B7CFE8
:1017100080910D02803208F071C0E0910D0281E0ED
:101720008E0F80930D028091BB00F0E0E351FE4FDD
:1017300080833DC0803B39F0E0F4803A09F479C001
:10174000883A09F09CCF84E080939A021092EC01D1
:101750001092EB01E0911702F09118020995809127
:10176000EB0181110FC081E08093EB011092CB015E
:1017700009C0803C09F4A6CF883C09F4A3CF883B7C
:1017800009F07DCFE091EC0181E08E0F8093EC01B8
:10179000F0E0E553FE4F80818093BB009091EC0117
:1017A0008091EB0129C0809175028093BB0085EC8C
:1017B0008093BC0064CF9091770280917602981755
:1017C00058F5E091770281E08E0F80937702F0E088
:1017D000EC5AFD4F8081E9CFE091770281E08E0FD6
:1017E000809377028091BB00F0E0EC5AFD4F80833C
:1017F00090917702809176029817C8F285E8D8CF49
:10180000E091770281E08E0F809377028091BB0098
:10181000F0E0EC5AFD4F80838091790281115CCF1A
:1018200081E08093740284EA8093BC0010929A0253
:1018300026CF85EC8093BC0010929A0280910D0215
:10184000803230F4E0910D02F0E0E351FE4F10825F
:1018500060910D0270E0E0911902F0911A028DEE94
:1018600091E0099510920D020ACF1092780234CFC0
:101870001092A3021092A20288EE93E0A0E0B0E0E2
:101880008093A4029093A502A093A602B093A7020E
:1018900025E231E03093A1022093A00225EC30E054
:1018A0003093AD022093AC0224EC30E03093AF02D1
:1018B0002093AE0220EC30E03093B1022093B002CE
:1018C00021EC30E03093B3022093B20222EC30E0FE
:1018D0003093B5022093B40226EC30E03093B70287
:1018E0002093B6021092B9021092BA021092BB0273
:1018F0001092BC0210924603109245038093470356
:1019000090934803A0934903B0934A0387E391E07F
:1019100090934403809343031092C7031092C6032D
:1019200089E491E09093C5038093C40384E280939B
:10193000C80384E18093CD0384E08093CE031092AA
:10194000CF0310925103109255031092540310923A
:101950005603EBE6F3E0108214821382158236966A
:1019600083E0E73AF807B9F783E091E09093B20398
:101970008093B10380E091E09093B4038093B3032C
:1019800084E08093B50383E08093B60387E091E021
:101990009093B0038093AF038AE090E09093B803F4
:1019A0008093B70384EF91E09093BA038093B903D7
:1019B0001092BD031092BC031092AB031092AC03C3
:1019C0001092AD031092AE031092BB0385E591E037
:1019D0009093500380934F0380E28093BE0381E095
:1019E0008093BF0383E493E09093C3038093C20387
:1019F00063E971E08DE393E00C945E09CF93DF938C
:101A0000CDB7DEB72C970FB6F894DEBF0FBECDBFB3
:101A1000789484B5826084BD84B5816084BD85B5C9
:101A2000826085BD85B5816085BD80916E008160D5
:101A300080936E001092810080918100826080937B
:101A4000810080918100816080938100809180007D
:101A50008160809380008091B10084608093B100A8
:101A60008091B00081608093B00080917A008460A2
:101A700080937A0080917A00826080937A008091CE
:101A80007A00816080937A0080917A0080688093E8
:101A90007A001092C100E091B002F091B10282E0B0
:101AA0008083E091AC02F091AD021082E091AE0231
:101AB000F091AF028FEC80831092B802E091B402F3
:101AC000F091B50286E08083E091B202F091B3021A
:101AD000808180618083E091B202F091B3028081C5
:101AE00088608083E091B202F091B30280818068C7
:101AF0008083E091B202F091B30280818F7D808378
:101B000010921C0210921B0210923102109253028A
:101B10000E94430381EB90E0909318028093170298
:101B200082EB90E090931A02809319026FEF7FEF9F
:101B30008FE493E00E940E066091BF03613208F0CB
:101B400060E28091BE030E94820310921C02809387
:101B50001B028091C2039091C303DC01ED91FC91C3
:101B60000284F385E02D09959093C1038093C0030F
:101B70008091BF038230B8F08091C2039091C3037B
:101B8000DC01ED91FC910284F385E02D099520E0C4
:101B9000382F8091C0039091C103822B932B909397
:101BA000C1038093C00310921C0210921B0210927A
:101BB0003102109253020E94430381EB90E0909314
:101BC00018028093170282EB90E090931A028093A0
:101BD00019021092C9038091CE03823018F098E068
:101BE0009093C9038093CC0362E370E080E090E0BF
:101BF0000E9481026091CF0384EC93E00E94C705AC
:101C000068EE73E080E090E00E94810260E384EC83
:101C100093E00E946B060BE416E4C8010197F1F70C
:101C200060E384EC93E00E946B06C8010197F1F732
:101C300060E384EC93E00E946B0683E592E00197F9
:101C4000F1F760E284EC93E00E946B066091C903B7
:101C5000606240E084EC93E00E94840684E080931C
:101C6000CA0340E06CE084EC93E00E9484060E948A
:101C7000CD0682E08093CB0340E066E084EC93E005
:101C80000E94840640E062E084EC93E00E948406B7
:101C90008BE39FE10197F1F788E08093CF0360E049
:101CA00084EC93E00E94C70561E085E00E94200279
:101CB00061E084E00E94200261E083E00E94200253
:101CC00061E082E00E9420020E9477099AE0392EAA
:101CD00024EF422E5524539430E0632E30E0732ECF
:101CE00045E2C42E42E0D42E57E2A52E52E0B52E96
:101CF00069E2862E62E0962E83E4282E80912F02E0
:101D0000882309F45CC10E943007882349F0E091E0
:101D10002A02F0912B028053808381E080932E026F
:101D200080912E02882309F449C010922F028091DD
:101D30002D02813009F0EAC060912C02062E000CC1
:101D4000770BCE0101960E940F0966E871E0CE0183
:101D500007960E945E09BE016F5F7F4FCE01079616
:101D60000E94BB080E949708BC018DE393E00E948B
:101D70004709CE0107960E946F09CE0101960E9485
:101D80006F0990922B0280922A0210922E020E94DA
:101D9000CD0680E00E949B068DE393E00E94E00068
:101DA00081E00E949B0643E150E065EB71E084EC2A
:101DB00093E00E94B30082E00E949B0620927C0088
:101DC00080917A00806480937A0080917A0086FD09
:101DD000FCCF8091780020917900322F282F249D0C
:101DE000C001259D900D349D900D112497FF02C0D8
:101DF00081509C4F092F05950595192F110F110B37
:101E0000E0902C020E2C000CFF08E016F106ACF559
:101E10001092240280912302811111C0809122022C
:101E200081110DC00E94B30260931E0270931F02C5
:101E3000809320029093210281E08093230280917D
:101E400023028823D1F00E94B30220911E02309118
:101E50001F024091200250912102621B730B840BE0
:101E6000950B693E73408105910538F080912202FF
:101E7000811103C081E080932202C701019680177F
:101E800091076CF41092240280912202882339F089
:101E900080911D02811103C081E080931D020E1507
:101EA0001F050CF0C0C01092230210922202109263
:101EB0001D0280912402811103C081E080932402DD
:101EC0006091230285E00E94F2016091220284E089
:101ED0000E94F20160911D0283E00E94F201609174
:101EE000240282E00E94F2016AE070E080E090E06B
:101EF0000E9481026114710409F400CF0E9426013E
:101F0000882309F4F9CE0E940000F6CE823051F504
:101F100060912802062E000C770BCE0101960E94DC
:101F20000F0964E971E0CE0107960E945E09BE01C7
:101F30006F5F7F4FCE0107960E94BB080E949708F3
:101F4000BC018DE393E00E944709CE0107960E94F1
:101F50006F09CE0101960E946F09B0922B02A092E8
:101F60002A0213CF833009F010CF60912602062E8B
:101F7000000C770BCE0101960E940F0966EA71E012
:101F8000CE0107960E945E09BE016F5F7F4FCE01B2
:101F900007960E94BB080E949708BC018DE393E05E
:101FA0000E944709CE0107960E946F09CE01019653
:101FB0000E946F09D0922B02C0922A02E6CE809135
:101FC0002E02882379F08091290280932C0280913F
:101FD00027028093280280912502809326020E9486
:101FE0007709ECCE0E943007182F882309F4E6CE3B
:101FF00041E0682F84EC93E00E9484061A3221F4B9
:1020000081E080932E02DACE133249F3E0912A0266
:10201000F0912B028081839D100D112410531083A9
:1020200010922E02CBCEE016F10609F049CF1092A5
:1020300023021092220210921D021092240240CF1D
:102040008DE393E00C946F09BB274A3031F4992358
:1020500022F4BDE2909581959F4F0C943010BB27E0
:10206000FB015527AA27880F991FAA1FA41710F054
:10207000A41B83955051B9F7A05DAA3308F0A95D60
:10208000A193009779F7B111B1931192CB010C9400
:102090004910DC01FC01672F71917723E1F732973A
:1020A00004C07C916D9370836291AE17BF07C8F333
:1020B00008952F923F924F925F926F927F928F92EC
:1020C0009F92AF92BF92CF92DF92EF92FF920F93C7
:1020D0001F93CF93DF93CDB7DEB7CA1BDB0B0FB6D1
:1020E000F894DEBF0FBECDBF09942A88398848888E
:1020F0005F846E847D848C849B84AA84B984C88424
:10210000DF80EE80FD800C811B81AA81B981CE0F1A
:10211000D11D0FB6F894DEBF0FBECDBFED010895FF
:10212000EE0FFF1F0590F491E02D09940F931F937C
:10213000CF93DF938230910510F482E090E0E0913C
:10214000D203F091D30330E020E0B0E0A0E030977C
:1021500099F42115310509F44AC0281B390B2430A4
:102160003105D8F58A819B816115710589F1FB01E3
:1021700093838283FE0111C04081518102811381CA
:1021800048175907E0F04817590799F4109761F07C
:1021900012960C93129713961C933296CF01DF91EF
:1021A000CF911F910F9108950093D2031093D30301
:1021B000F4CF2115310551F04217530738F0A9012A
:1021C000DB019A01BD01DF01F801C1CFEF01F9CFB9
:1021D0009093D3038093D203CDCFFE01E20FF31F80
:1021E000819391932250310939832883D7CF20914D
:1021F000D0033091D103232B41F42091150130916C
:1022000016013093D1032093D00320911301309114
:1022100014012115310541F42DB73EB74091170146
:1022200050911801241B350BE091D003F091D1039C
:10223000E217F307A0F42E1B3F0B2817390778F09D
:10224000AC014E5F5F4F2417350748F04E0F5F1FFC
:102250005093D1034093D003819391939FCFF0E0AB
:10226000E0E09CCFCF93DF930097E9F0FC01329739
:1022700013821282A091D203B091D303ED0130E01A
:1022800020E01097A1F420813181820F931F2091CB
:10229000D0033091D1032817390709F061C0F093BA
:1022A000D103E093D003DF91CF910895EA01CE17D7
:1022B000DF07E8F54A815B819E0141155105B1F7C1
:1022C000E901FB83EA8349915991C40FD51FEC17AB
:1022D000FD0761F4808191810296840F951FE901C9
:1022E00099838883828193819B838A83F0E0E0E0F5
:1022F00012968D919C9113970097B9F52D913C9171
:102300001197CD010296820F931F2091D003309137
:10231000D1032817390739F6309751F51092D303B6
:102320001092D203B093D103A093D003BCCFD38338
:10233000C28340815181840F951FC817D90761F46A
:102340004E5F5F4F88819981480F591F51834083A9
:102350008A819B81938382832115310509F0B0CF57
:10236000F093D303E093D2039ECFFD01DC01C0CFF5
:1023700013821282D7CFB0E0A0E0E1ECF1E10C943F
:102380005B108C01009751F4CB010E9496108C01D8
:10239000C801CDB7DEB7E0E10C947710FC01E60F81
:1023A000F71F9C0122503109E217F30708F49DC082
:1023B000D901CD91DC911197C617D70798F0C53098
:1023C000D10530F3CE0104978617970708F3C61B93
:1023D000D70B2297C193D1936D937C93CF010E9429
:1023E0003211D6CF5B01AC1ABD0A4C018C0E9D1E7A
:1023F000A091D203B091D303512C412CF12CE12CAC
:10240000109731F58091D0039091D10388159905EB
:1024100009F05CC04616570608F058C080911301B9
:1024200090911401009741F48DB79EB74091170128
:1024300050911801841B950BE817F90708F055C057
:10244000F093D103E093D003F90171836083A0CFAF
:102450008D919C91119712966C90129713967C9087
:102460001397A815B90559F56C0142E0C40ED11CAB
:10247000CA14DB0420F1AC014A195B09DA01129697
:10248000159780F06282738251834083D9016D93E6
:102490007C93E114F10471F0D7011396FC93EE9351
:1024A000129776CF22968C0F9D1FF901918380831E
:1024B000F301EFCFF093D303E093D20369CF481633
:1024C000590608F42C017D01D3019ACFCB010E945B
:1024D00096107C01009749F0AE01B8010E94781275
:1024E000C8010E943211870153CF10E000E050CFA5
:1024F000FB01DC0102C001900D9241505040D8F721
:102500000895FB01DC0101900D920020E1F7089590
:1025100010E0C2E6D0E004C0FE010E9490102196B7
:10252000C336D107C9F7F894FFCF020100030405B1
:10253000063132333435363738392A30230000D467
:102540000380000000400014005400000000005C04
:1025500001B300E900A9011A01F8000C0100000014
:102560000098056B05DB0541056405510542050032
:10257000000000D806B300DB051B0300000000B01C
:10258000005006DE06312D205365742074656D7091
:10259000202800322D205365742068756D6920282D
:1025A00000332D20536574206C69676874202800FF
:1025B000456E7465722074656D703A202800456E12
:1025C0007465722068756D69646974793A202800B1
:1025D000456E746572206C696768743A202800281B
:1025E0002A2053617665292028232043616E636584
:0425F0006C29000052
:107E0000112484B714BE81FFF0D085E080938100F7
:107E100082E08093C00088E18093C10086E0809377
:107E2000C20080E18093C4008EE0C9D0259A86E02C
:107E300020E33CEF91E0309385002093840096BBD3
:107E4000B09BFECF1D9AA8958150A9F7CC24DD24C4
:107E500088248394B5E0AB2EA1E19A2EF3E0BF2EE7
:107E6000A2D0813461F49FD0082FAFD0023811F036
:107E7000013811F484E001C083E08DD089C08234E0
:107E800011F484E103C0853419F485E0A6D080C0E4
:107E9000853579F488D0E82EFF2485D0082F10E0AE
:107EA000102F00270E291F29000F111F8ED06801E7
:107EB0006FC0863521F484E090D080E0DECF843638
:107EC00009F040C070D06FD0082F6DD080E0C81688
:107ED00080E7D80618F4F601B7BEE895C0E0D1E017
:107EE00062D089930C17E1F7F0E0CF16F0E7DF06D8
:107EF00018F0F601B7BEE89568D007B600FCFDCFD4
:107F0000A601A0E0B1E02C9130E011968C91119780
:107F100090E0982F8827822B932B1296FA010C0160
:107F200087BEE89511244E5F5F4FF1E0A038BF0790
:107F300051F7F601A7BEE89507B600FCFDCF97BE46
:107F4000E89526C08437B1F42ED02DD0F82E2BD052
:107F50003CD0F601EF2C8F010F5F1F4F84911BD097
:107F6000EA94F801C1F70894C11CD11CFA94CF0C13
:107F7000D11C0EC0853739F428D08EE10CD085E9AC
:107F80000AD08FE07ACF813511F488E018D01DD067
:107F900080E101D065CF982F8091C00085FFFCCF94
:107FA0009093C60008958091C00087FFFCCF809118
:107FB000C00084FD01C0A8958091C6000895E0E648
:107FC000F0E098E1908380830895EDDF803219F02E
:107FD00088E0F5DFFFCF84E1DECF1F93182FE3DFCA
:107FE0001150E9F7F2DF1F91089580E0E8DFEE27F6
:047FF000FF270994CA
:027FFE00040479
:00000001FF
